:020000040800F2
:100000007002002095010008990100089B0100087A
:100010009D0100089F010008A101000800000000E8
:10002000000000000000000000000000A301000824
:10003000A501000800000000A7010008A9010008B0
:10004000AB010008AB010008AB010008AB010008E0
:10005000AB010008AB010008AB010008AB010008D0
:10006000AB010008AB010008AB010008AB010008C0
:10007000AB010008AB010008AB010008AB010008B0
:10008000AB010008AB010008AB010008AB010008A0
:10009000AB010008AB010008AB010008AB01000890
:1000A000AB010008AB010008AB010008AB01000880
:1000B000AB010008AB010008AB010008AB01000870
:1000C000AB010008AB010008AB010008AB01000860
:1000D000AB010008AB010008AB010008AB01000850
:1000E000AB010008AB010008AB01000800F002F80A
:1000F00000F03FF80AA090E8000C82448344AAF183
:100100000107DA4501D100F034F8AFF2090EBAE880
:100110000F0013F0010F18BFFB1A43F0010318473B
:10012000B81F0000D81F0000103A24BF78C878C15B
:10013000FAD8520724BF30C830C144BF04680C60ED
:10014000704700000023002400250026103A28BF35
:1001500078C1FBD8520728BF30C148BF0B60704739
:10016000642900F0CF84002070471FB51FBD10B573
:1001700010BD00F093FD1146FFF7F7FF00F024F8E3
:1001800000F0B1FD03B4FFF7F2FF03BC00F0FEF98D
:1001900030BF000008480047FEE7FEE7FEE7FEE745
:1001A000FEE7FEE7FEE7FEE7FEE7FEE70348044959
:1001B000024A044B70470000ED0000087000002068
:1001C0007002002070000020092000F084F948200F
:1001D00000F016F84FF4E131482000F0E6F900F0A5
:1001E00067FA142200213C2000F076FB0022022155
:1001F0003C2000F071FB01E000F0C6FBFCE70000D2
:100200004FF0E021096921F004014FF0E022116173
:10021000C21700EB5272C2F3C702234B1A70194681
:10022000097801EB4102C2EBC1114FF6FF7202EAFD
:10023000C1011E4A1180704701461C4A12884A4378
:100240004FF0E0235A6100229A6101221A6100BF37
:100250004FF0E022106900F001021AB100F4803280
:10026000002AF5D000224FF0E0231A619A6170470E
:1002700001460D4A12784A434FF0E0235A610022AA
:100280009A6101221A6100BF4FF0E022106900F06C
:1002900001021AB100F48032002AF5D000224FF09A
:1002A000E0231A619A6170470000002002000020DC
:1002B000AA4A0A400243AA4B1A6070470146072324
:1002C00023EA01021202A64B1B1D18684FF6FF031A
:1002D0001840A44B18431043A14B1B1D18607047D6
:1002E0002DE9F0478046894614461D462046E11711
:1002F00004EB9171C1F3870AE11704EB9171891046
:10030000A4EB8101CFB2042000EBC700C7B228469E
:10031000FFF7D4FFC5F1040008FA00F60F202841CA
:1003200000EA0900064306F00F06202C09DA8E4881
:1003300001680120A04001434FF0E020C0F8001107
:100340000BE08948001D0068A4F1200101228A40C9
:1003500010434FF0E021C1F80401844850F82A000E
:1003600006FA07F10843814941F82A00BDE8F08701
:1003700070B504460B46CE1701EB9676C6F38700A0
:10038000CE1701EB9676B610A1EB8606B606350EB3
:10039000774B9B6943F00103754EB3614FEAB63367
:1003A00053F820300F26AE40B343724E46F820304B
:1003B000334653F8203004FA05F61E436D4B43F8DC
:1003C00020606D4B1B6801268E4033436A4E3360BC
:1003D00002F0010343B1684B0C331B6801268E40C9
:1003E0003343654E0C36336002F0020343B1624B77
:1003F00008331E6801238B401E435F4B08331E6089
:1004000070BD00B500205A490861C86014204861D9
:1004100000208861C8610846006840F0010008605B
:1004200008464068554908405149486008460068F8
:10043000534908404E4908600846006820F480206F
:1004400008600846406820F4FE004860002088608C
:1004500000214FF00060FFF72BFF00BD10B54048B2
:100460000830006840F004003D4908310860404809
:10047000C06940F080503E49C8614248406840F43D
:100480008070404948600846006840F004000860F9
:100490000846006840F002000860FFF779FE10BDD2
:1004A0003048001D2E49091D086070470146490665
:1004B0002F4A926942F001022D4B9A612D4A083A67
:1004C000526822F0E0622B4B083B5A601A46526891
:1004D0000A435A60704730B504460025FFF791FF84
:1004E0002348006840F480302149086000BF20485C
:1004F0000068400C0028FAD04FF480601C49486026
:10050000A01EC4B20846406840EA844048600846DD
:10051000406840F4803048601B48006840F032007A
:10052000194908601248006840F08070104908605E
:1005300000BF0F480068400E0028FAD00C48406801
:1005400040F002000A49486005E009484068C0F3ED
:10055000870505F00305022DF7D130BD80FFFF1F91
:1005600008ED00E00000FA0500E100E000E400E032
:100570000010024008000140000401400000FFF8A4
:10058000FFFFF6FE0070004000200240014600BF61
:10059000704700BF324A128802F04002002AF9D0A8
:1005A000C2B22F4B1B1D1A8070472DE9F05F054624
:1005B0000E46300101F068FB81462A4905FB01F037
:1005C00001F062FB8246494601F07CFA0746384654
:1005D00001F03AFB84B2204601F056FB83463946CF
:1005E00001F032FC82464FF0834101F061FB81460D
:1005F00001F02AFB80464FF6FF7000EA041404EB7A
:10060000080084B21848806940F0040016498861E7
:100610000846806940F4804088611448006820F4EE
:100620007F60124908600846006840F40B6008606B
:100630000D48C06840F480400B49C8600846C06857
:1006400020F48040C860064808300480001D0088FF
:1006500042F20C01084302490C310880BDE8F09FCA
:100660000038014040420F000010024004080140E1
:1006700000E0401E0028FCD1704707E0002100E0A8
:10068000491C4CF250329142FADB401E0028F5D151
:1006900070471E2001E0411EC8B20028FBD1704700
:1006A00041F2883000E0401E0028FCD17047000075
:1006B0008748806940F0080085498861854800685E
:1006C00020F07F40834908600846006840F04C50A5
:1006D000086080480C30006840F0C0007D490C3153
:1006E0000860704710B580207A49103108604020BA
:1006F0000860FFF7CEFF77480830006808B901208E
:1007000000E0002000F0800008B1002010BD802033
:10071000704914310860FFF7BCFF6E48083000686C
:1007200000F0800008B10020F0E780206949143112
:100730000860FFF7AEFF0120E8E710B540206549EB
:1007400014310860FFF7A5FF80206249143108606A
:10075000FFF79FFF40205F4910310860FFF799FFC6
:1007600080205C4910310860FFF793FF10BD10B581
:100770004020584914310860FFF78BFF802055490D
:1007800014310860FFF785FF40205249103108609E
:10079000FFF77FFF40204F4914310860FFF779FFD2
:1007A00010BD10B540204B4914310860FFF771FFB0
:1007B0008020484910310860FFF76BFF4020454911
:1007C00010310860FFF765FF40204249143108608E
:1007D000FFF75FFF10BD10B540203E49143108609F
:1007E000FFF757FF80203B4910310860FFF751FFAA
:1007F0004020384910310860FFF74BFF354808307A
:10080000006800F0800038B140203249143108609F
:10081000FFF73FFF002010BD40202E491431086033
:10082000FFF737FF0120F6E770B5044608251BE007
:100830004020284914310860FFF72BFF04F08000A6
:1008400020B1802023491031086003E08020214935
:10085000143108606006040EFFF71BFF40201D499D
:1008600010310860FFF715FF2800A5F10101CDB296
:10087000DED1402017491431086070BD70B50825DD
:100880000024802013491031086015E06006040E32
:100890004020104914310860FFF7FBFE40200D494D
:1008A00010310860FFF7F5FE0A480830006800F0D4
:1008B000800008B144F001042800A5F10101CDB287
:1008C000E4D14020034914310860204670BD000087
:1008D00000100240000C014070B506460C4615465B
:1008E000FFF700FF08B9002070BD3046FFF79CFFFE
:1008F000FFF771FF18B9FFF720FF0020F4E720464B
:10090000FFF792FFFFF767FF2846FFF78DFFFFF71E
:1009100062FFFFF712FFFFF7C3FE0120E4E770B5A7
:1009200004460D46FFF7DEFE08B9002070BD2046E4
:10093000FFF77AFFFFF74FFF30B9FFF7FEFE012008
:10094000444908700020F1E72846FFF76DFFFFF7E4
:1009500042FFFFF7C7FE611CC8B2FFF765FFFFF754
:100960003AFFFFF78BFF0646FFF71BFFFFF7E5FE99
:100970003046DBE710B50446214637A000F082F888
:100980001420FFF77AFE10BD2DE9F04F87B0142236
:1009900000213C20FFF7A0FF002202213C20FFF7AE
:1009A0009BFF0A20FFF769FE03213C20FFF7B7FFFA
:1009B0008DF8110004213C20FFF7B1FF8DF81200E3
:1009C00007213C20FFF7ABFF8DF8130008213C20E6
:1009D000FFF7A5FF8DF814009DF812009DF8111087
:1009E00040EA012A9DF814009DF8131040EA012BFB
:1009F000BAF5004F03DBAAF57F4AAAF1FF0ABBF55F
:100A0000004F03DBABF57F4BABF1FF0B504600F023
:100A1000ECFDCDE90001584600F0E7FD0646DDE9B2
:100A2000002300F0EDFA0446114A124B00F0F4FDE9
:100A300080460022104B00F0A3FBCDE9020100F03C
:100A4000A7FD0E49088008460088FFF793FF07B00E
:100A5000BDE8F08F0800002043757272656E742047
:100A6000416E676C653A3D2564A1E30A0000000011
:100A7000775AF01ADCA54C40008066400A0000203E
:100A8000704700000FB4044910B503AA029800F0A3
:100A9000D3F810BC5DF814FB040000202DE9F041F0
:100AA0000E460446002020622046E168884730B3A5
:100AB000252805D0D4E901219047206A401CF2E79F
:100AC000E168204600278847050018D0A5F14100BD
:100AD000192802D820354FF40067324629462046AF
:100AE0002760FFF73DFB40B1012804D0F61D26F03A
:100AF00007060836D8E7361DD6E72846DAE7206A23
:100B0000BDE8F0812DE9F041064600241068752902
:100B1000314616A510D0AFF30080002802DA40421B
:100B200013A507E031688A0701D512A502E049073D
:100B300004D511A5012401E0AFF3008000210A22B1
:100B400006F1240709E0B0FBF2FCB0FBF2F302FB74
:100B50001C00303078541846491C0028F3D1234635
:100B60002A463046BDE8F04100F00CB80000000015
:100B70002D0000002B00000020000000704770478F
:100B8000704770472DE9F0470D4699469246044656
:100B900000F124080168880604D5E06921F01001FD
:100BA000216000E00120A84201DD471B00E0002792
:100BB000A1697A1902EB0900081AA0612078C00621
:100BC00002D42046AFF30080002608E0D4E90121DA
:100BD0001AF806009047206A401C761C20624E4599
:100BE000F4DB2078C0060AD52046AFF3008006E08B
:100BF000D4E9012130209047206A401C2062381E31
:100C0000A7F10107F4DC07E0D4E9012118F8050099
:100C10009047206A401C2062281EA5F10105F3DCE4
:100C20002046AFF300802078000602D50220BDE800
:100C3000F0870120FBE70000074B70B50D467B44B1
:100C400000F011F80446284600F020F810B14FF0EB
:100C5000FF3070BD204670BD51F9FFFF01694A1C8D
:100C600002610878704700B58FB0CDE901310021ED
:100C7000059105497944CDE9031011466846FFF70F
:100C80000DFF0FB000BD0000E5FFFFFF007B00F08F
:100C900080007047004870470C0000207546FFF741
:100CA000F9FFAE4605006946534620F00700854629
:100CB00018B020B5FFF77AFABDE820404FF00006E3
:100CC0004FF000074FF000084FF0000B21F0070134
:100CD000AC46ACE8C009ACE8C009ACE8C009ACE877
:100CE000C0098D4670470446AFF300802046FFF7E9
:100CF00049FA490050EAC12018BF04204A0D18BF24
:100D000040F0010040F2FF72B2EB515F08BF40F0CB
:100D10000200012808BF052070472DE9F0414F1E51
:100D200000EBC7010446D1E9000115461E4637F025
:100D300006020DD02A46334600F06EFC7F1E04EBFF
:100D4000C703D3E9002300F01BFA37F00602F1D104
:100D5000022F25D0042F13D0062F18BFBDE8F08135
:100D60002A46334600F058FCD4E90A2300F008FA7A
:100D70002A46334600F050FCD4E9082300F000FA7C
:100D80002A46334600F048FCD4E9062300F0F8F97F
:100D90002A46334600F040FCD4E9042300F0F0F981
:100DA0002A46334600F038FCD4E9022300F0E8F983
:100DB0002A46334600F030FCD4E90023BDE8F04178
:100DC00000F0DEB9012201F0F0B800F0D9B900005E
:100DD000024A0020110701F0E8B8000001FDFFFF02
:100DE0002DE9F84F04460D4621F00040009173496B
:100DF000814211DC7249884201DC06D12CB12046C7
:100E00002946BDE8F84FFFF7DDBF6E48002DCCBF87
:100E10006D496E49BDE8F88F6D49814211DD6D491C
:100E20008142D8BF4FF0FF366DDD20462946FFF7DF
:100E300060FF042808BFFFF7CBFF20462946BDE826
:100E4000F88F6549654F25F00045814233DD6449DF
:100E5000814219DD002632464FF080432046294664
:100E600000F08EF980468A4601222046294601F08C
:100E70009CF800223B4600F0D9FC4246534600F065
:100E80002FFA04460D463EE001260022BA463B46B4
:100E90002046294600F074F980460F46002253464A
:100EA0002046294600F0C2FC42463B4600F018FAB4
:100EB00004460D4627E04B4981421BDDDFF828A19F
:100EC0000226002253462046294600F0A5FB0022B8
:100ED0003B4600F055F980460F4600225346204617
:100EE000294600F0A3FC42463B4600F0F9F90446CF
:100EF0000D4608E0032622462B4600203B4900F021
:100F0000EFF904460D4622462B461046194600F0DE
:100F100083FB8B46824602460B4600F07DFB07466C
:100F20000246334888460B4606217844FFF7F5FE13
:100F300052465B4600F070FB82462E488B463A468E
:100F4000434605217844FFF7E8FE3A46434600F061
:100F500063FB02460B46002E504659460CDA00F061
:100F60000FF922462B4600F057FB01B022462B46D4
:100F7000BDE8F04F00F04EBC00F002F922462B46CF
:100F800000F04AFB1C4A7A4402EBC603D3E9002373
:100F900000F04CFC22462B4600F048FC174A7A44ED
:100FA00002EBC603D3E9002300F034FC009A002AC8
:100FB000B8BF81F00041BDE8F88F00000000104488
:100FC0000000F07F182D4454FB21F93FFB21F9BFAD
:100FD0000000DC3F0000203E0000F33F0000F03F37
:100FE0000000E63F008003400000F83F0000F0BF33
:100FF0007211000030110000CE10000096100000A9
:101000002DE9F04D9446CCF1000423F000464CEA63
:101010000404524F46EAD4749A46884621F00042AE
:10102000BC4206D8454240EA050442EAD474BC42B8
:1010300004D9BDE8F04D6246FFF7C7BEAAF140559E
:10104000A5F17F6555EA0C040BD0022404EAAA74CA
:10105000434DDFF810E144EAD87452EA000B04D0A3
:101060000CE0BDE8F04DFFF7BBBE002C14BF012C17
:10107000BDE8F08D022C30D0032C32D056EA0C0B98
:101080000AD0BE4220D1BA4209D126F0804622F0D1
:1010900080423346114617E000291ADB25E0DFF8CD
:1010A000C8B0FB44002C04BFDBE90001BDE8F08DB3
:1010B000012C02BFDBE9000181F00041BDE8F08DA9
:1010C000022C0AD0032C0CD0BA4212D1B8F1000F76
:1010D0000BDA23482549BDE8F08D28462449BDE8B0
:1010E000F08D28467146BDE8F08D1D482149BDE8C8
:1010F000F08D921B12153C2AC4BF19481D490EDC05
:10110000BAF1000FBEBF12F13C0F0020014606DB12
:10111000624600F0E5F821F00041FFF761FE002C87
:1011200008BFBDE8F08D012C04BF81F00041BDE88F
:10113000F08D114A114B022C07D000F077FB2A46A4
:10114000BDE8F04D0A4B00F071BB00F06FFB2A4682
:10115000BDE8F04D064B00F05DBB00000000F07FE5
:10116000182D4454FB2109C02A100000FB21F9BFAF
:10117000FB210940FB21F93F075C143326A6A13C63
:1011800010B591EA030F48BF83F0004300F1568386
:10119000841A71EB030C05D2121943EB0C03001BEC
:1011A00061EB0C01DFF824E14FEA1154A4EB135C6E
:1011B0001EEA430F18BF9EEA445F73D023EA0E0372
:1011C000DCF1200E21EA045143F4801332D322FAD9
:1011D0000CFE10EB0E0023FA0CFE41EB0E01CCF1DD
:1011E000200E03FA0EFE10EB0E0051F10001B1F5D6
:1011F000801FCCF1200E32D201EB045112FA0EF214
:10120000BDE8104058BF7047401C38BF5FEA42023B
:1012100018BF7047002814BF20F0010041F1000101
:101220004FEA410313F5001F38BF7047A1F1C041D9
:1012300000F0EABA012A43EB0302ACF1200CDCF126
:101240001F0E32BF4FF0000E23FA0CF310EB030019
:1012500041EB0451B4EB115FD0D0A1EB045101F587
:10126000801149085FEA300001EB04510ED350F1C0
:10127000000038BF12FA0EFE08D1BDE81040C9E7E1
:10128000401C38BF5FEA4202CAD1C3E7BDE8104044
:101290004FEA410313F5001F38BF7047A1F1C04169
:1012A00000F0B2BA9EEA445F08D011EA5E0FBDE8D2
:1012B000104004BF01F0004100207047BDE810401D
:1012C00070B500F053FA00BF64FBBE3E0000E0FFC3
:1012D00002494FF0000000F036BE00BF0000F87F6A
:1012E0002DE9C04130B4DFF8A0C23CEA111418BFA8
:1012F0003CEA131400F0EC8081EA03051CEA1114A7
:1013000044EAD57418BF1CEA131500F0C780A4EB9B
:1013100005044FF0004545EAC12145EAC32341EAEF
:10132000505143EA525304F17F74994204F500345A
:101330004FEAC0204FEAC22208BF904200F09C80D2
:101340004FEA13650FF24016765D4FEA134506FB30
:1013500005F7C7F1807706FB07F74FEAD737A7FBFA
:1013600003687642C8F58038A7FB06CE38BFA8F1DF
:10137000010807FB08E64FF0000EA6FB028CE6FB17
:1013800003CEDCF1000CCEF1004E38BFAEF1010E01
:10139000A6FB0C584FF000074FF00005E6FB0E8748
:1013A000A1FB08C6A0FB07CE16EB0E0645F1000513
:1013B000E1FB076515F1E04E7EBFA4F580345FEADE
:1013C00046066D4116F1800745F100054FEA1727E3
:1013D0004FEA066647EA0567A6F1DE46B6F1805F8A
:1013E0004FEA15251FD9384624F0010C05EBC471CE
:1013F000BCF1FE6F01EB0C1102D8F0BCBDE800811E
:1014000024425CBF01F5801E9EEAC47F02D4F0BC7A
:10141000BDE80081244238D4F0BCA1F1C041BDE850
:10142000004100F0F1B94FEAD22242EA43524FEABA
:10143000D323A7FB02864FEAD02040EA415007FBA6
:1014400003661EEA0E0F4FEAD12105FB026658BF64
:10145000A6EB0056B6EB00564FEA520E4EEAC37E9C
:1014600018EB0E0E56EB530EBDD518EB02085E417D
:101470007F1C55F10005B6E74FF480154FF00007CB
:101480004FF000064FF00008ADE7F0BC4FF0000051
:1014900001F1C04101F00041BDE8008111EA0C1FDB
:1014A0000CEA131500D00CE013EA0C1F00F02580A5
:1014B0004FF00000F0BC81EA030101F00041BDE8FB
:1014C0000081F0BCBDE8004181EA030100F09CB955
:1014D000F0BCBDE8004170B500F048F9097EFC3E63
:1014E00000F007B881EA03014FF0000001F000416D
:1014F000704781EA030100F087B9F0BCBDE8004104
:101500004FF0000021497047FFFDFBF9F7F5F4F2B9
:10151000F0EEEDEBE9E8E6E4E3E1E0DEDDDBDAD88E
:10152000D7D5D4D3D1D0CFCDCCCBCAC8C7C6C5C4EC
:10153000C2C1C0BFBEBDBCBBBAB9B8B7B6B5B4B303
:10154000B2B1B0AFAEADACABAAA9A8A8A7A6A5A4EE
:10155000A3A3A2A1A09F9F9E9D9C9C9B9A999998B2
:101560009797969595949393929191908F8F8E8E55
:101570008D8C8C8B8B8A89898888878786858584E2
:1015800084838382828181800000FF070000F87FCE
:101590004FEA1153A3F58063D3F11E03A8BFD3F123
:1015A000200C08DB4FF0004242EAC12252EA5052BE
:1015B00032FA03F0704709420BD4102BC4BF00204D
:1015C000704703F5787CBCF1FF3F05D04FF0FF304A
:1015D00070474FF00000704770B500F0C7F800BFCB
:1015E0004992248000207047F0E710F0004248BF85
:1015F0004042B0FA80F310FA03F10AD0C3F11D03A0
:1016000003F580634FEA415002EB035202EBD12114
:1016100070474FF000007047DFF848C170B51CEA12
:10162000111E1EBF1CEA13159EEA0C0F95EA0C0F43
:1016300000F06F8081EA030423EA4C134EEAD47E63
:1016400021EA4C1141F4801143F48013AE44A1FB14
:10165000024CA0FB0365AEF17F7E361955EB0C05FD
:10166000A1FB034C4CF10003A0FB021C16EB0C0683
:10167000654153F10003094218BF46F0010613F417
:10168000007F0BD14FEA03314FEA0530340341EAC2
:10169000155140EA16506FF003020AE04FEAC321E9
:1016A0004FEAC520F40241EA555140EA56506FF026
:1016B000020202EB2E4201EB025585EACE710AD0FE
:1016C0005FEA440C18BF24F0004450F1000041F1DF
:1016D000000120EAD47040F2FE7C624500D270BD69
:1016E000A84214BF4FF080444FF04044002E08BF82
:1016F0000024BEF1806FA8BFA1F1C041BDE87040D9
:1017000080F282804FF0000001F1C04101F0004101
:1017100070479EEA0C0F0CEA131518BF95EA0C0FE0
:1017200006D04FF0000081EA030E0EF0004170BDBC
:1017300000F01CF88900013E00F007B800F009B87D
:101740004FEA430C5FEA5C5C08D081EA030100F0D9
:101750005BB84FEA410C5FEA5C5CF6D14FF00000E9
:10176000014970470000FF070000F87F0EF1020EEC
:101770002EF0030E5EF8046B364205D4012A43EBCB
:10178000030515F5001F12D8012841EB010C1CF5CB
:10179000001F0CD80ED14FEAD17C15F5001F0CEBC1
:1017A0004C0C0CF1020C08BF4CEBD37C04E04FF066
:1017B000080C01E04FEAD37C0CEB4C0526FA05F649
:1017C00006F00706B6F1040C06D20EEB860CBDE857
:1017D00070404CF0010C6047DFE80CF0090B02028E
:1017E0004FF000414FF00000A1F5002170BD1946F7
:1017F0001046012851EB010418BFD4F5001484BF32
:10180000002001F0004170BD0808A0F500114FEA6A
:101810003101704791EA030F10B581F000413FF5A7
:10182000B7AC83F0004300F009B8000010B591EAAE
:10183000030F48BF83F000433FF5AAAC841A71EB55
:10184000030C07D212198CF0004C43EB0C03001B65
:1018500061EB0C01DFF8A4E14FEA1154A4EB135C37
:101860001EEA430F18BF9EEA445F00F0B08023EAEF
:101870006E03524221EA0451C3EB6E0338BF5B1E74
:10188000DCF1200E25D322FA0CFE10EB0E0043FAF9
:101890000CFE41EB0E01CCF1200E03FA0EFE10EB14
:1018A0000E0051F10001CCF1200E29D412FA0EF2F3
:1018B00001EB0451BDE8104058BF7047401C1CBFED
:1018C000B2F1004F704700280CBF491C20F0010006
:1018D000704712EB020E43EB030218BF4FF0010EEC
:1018E0004EEA4202ACF1200CDCF11E0E54D943FA50
:1018F0000CFE10EB0E0051F1FF31CCF11E0ED5D5D0
:101900000EF1010E12FA0EFE404141EB010101EB16
:10191000445C5FEA5C5C10D910EBDE7001EB0451B3
:1019200038BFBEF1004FBDE8104018BF7047002817
:101930000CBF491C20F00100704730D24FEAD42C74
:1019400011F5001124F400641BD0B1FA81F20B3AB6
:10195000A41AA41ED2F12003914030FA03F31943D4
:10196000904001EBCC71002C01EB0451BDE810401C
:10197000A8BF704701F1C0414FF0000001F00041E5
:101980007047B0FA80F310FA03F100D110BDE41AE9
:10199000173C4805C90AE4E701EB045110BD4910A2
:1019A00001EB0451BDE810404FEA300002E04FF077
:1019B000000170474A0008BF0042F8D0B2F5001F8E
:1019C00028BF704701F000414FF0000070479EEAC9
:1019D000445F07D011EA5E0FBDE8104004BF00214C
:1019E00000207047BDE8104070B5FFF7BFFE00BF94
:1019F00040DFF63E83F00041104670470000E0FFF4
:101A000090EA010F48BF81F0004100F12E82421A96
:101A10003CBF801A89184FEAD0524FF07F4C1CEA25
:101A2000410FA2EBD15318BF9CEA026F00F03B803C
:101A30004FF0004C4CEA00204CEA012121FA03FC53
:101A400010EB0C0C1ED202F1FF325FEA1C2040EBBF
:101A5000C25038BF70471CF07F0F4FEA400C18BFD0
:101A6000BCF17F4F38BF7047C3F12003994008BFD6
:101A700020F00100BCF17F4F38BF7047A0F1C0409B
:101A800000F0DDB94FEA3C00000A40EBC25028BF2D
:101A90001CF0FF0F4FEA400CE6D018BFBCF17F4F9F
:101AA00038BF7047EAE79CEA026F05D010EA5C0F86
:101AB00008BF00F00040704710B500F07AF900BF91
:101AC00064FBBE3E4FF47F0C1CEAD0121EBF1CEA22
:101AD000D11392EA0C0F93EA0C0F00F0858090EA84
:101AE000010F48BF42F4807240F4000C41F4000042
:101AF0002CF07F4120F07F4000B58142A2EB030231
:101B00000FF2081CACEB504EC0F100009EF800E054
:101B10004FEA4E0E00FB0EFC38BF49004FEA2C1C6A
:101B200002F5FA020CFB0EF34FEACE1E4FEA112C1F
:101B30004FEAC1210EEB635E42EB22420EFB0CFC2E
:101B40004FEA1C5300FB03114FEA112C4FEA0131FD
:101B50000EFB0CFC4FEADC4C00FB0C11C14228BF11
:101B600009184CEB03335DF804EB10EB410143EB38
:101B7000C250B2F57C0F38BF704729D512F0F00F74
:101B80001CBF00F1C04000F000407047008182831C
:101B90008485868788898B8C8D8E8F91929395967C
:101BA00097999A9C9D9FA0A2A3A5A7A8AAACAEB006
:101BB000B2B3B5B7B9BCBEC0C2C5C7C9CCCED1D40B
:101BC000D7D9DCDFE2E6E9ECF0F3F7FAFE0000003B
:101BD0004FEA400C0CF1807CBCF17E4F28BF70476F
:101BE000B0F1C04000F02BB990EA010F0CEAD1131C
:101BF00048BF42F48072624538BF634507D213F490
:101C00007F0F16D080EA010000F00040704710B549
:101C100000F0CFF8097EFC3E00F005B880EA010034
:101C200000F00040704780EA010000F0004000F042
:101C300006B912F47F0F04BF0248704780EA010022
:101C400000F0FDB80000C07FC10DD1F19E0206DB9F
:101C50004FEA002343F0004323FA02F070470042AA
:101C600007D54FEA4001B1F1FE4F02D24FF000001C
:101C7000704710B500F09DF849922480002070470D
:101C80006FEA200070470000B0FA80F310FA03F208
:101C9000C3F19D030AD0D90501EB1220530638BFCA
:101CA000704700F1010008BF20F0010070470000FC
:101CB0004FF47F0C1CEAD0121EBF1CEAD11392EA2B
:101CC0000C0F93EA0C0F00F0478090EA010F48BF19
:101CD00042F480724FF0004C4CEA00204CEA0121A3
:101CE00002EB0302A0FB0113A2F50002002918BFBA
:101CF00043F001035B0028BF4FEA330342EB22426B
:101D00005FEA132C4CEBC2502EBFBCEB436FB2F515
:101D10007C0F70474FEA036CBCF1004F08BF20F006
:101D20000100B2F57C0F38BF70470BD582F0FF027F
:101D300012F5803FC8BF704700F1C040D8BF00F027
:101D40000040704700F5000C5FEA4C0C48BF70473C
:101D5000B0F1C04000F073B890EA010F0CEAD11363
:101D600048BF42F48072624538BF634504D280EABE
:101D7000010000F00040704710B500F01AF800BFF5
:101D80008900013E00F007B800F009B85FEA410C95
:101D90005FEA1C6C08D080EA010000F050B85FEAEE
:101DA000400C5FEA1C6CF6D14FF00040A0F58000BB
:101DB00070470EF1020E2EF0030E5EF8044B244223
:101DC00004D44FEA4102B2F17F4F11D84FEA4003E9
:101DD000B3F17F4F0CD80ED14FEAD07CB2F17F4FD8
:101DE0000CEB4C0C0CF1020C08BF4CEBD17C04E06A
:101DF0004FF0080C01E04FEAD17C0CEB4C0324FAC5
:101E000003F404F00704B4F1040C06D20EEB840CC6
:101E1000BDE810404CF0010C6047DFE80CF007080B
:101E200002024FF00040A0F5800010BD08464200BD
:101E300018BFD2F1807288BF00F0004010BDFF21B2
:101E400041EAD050C005704780F0004090EA010F91
:101E50007FF5DDAD81F0004100F007B890EA010F99
:101E600048BF81F000413FF5D2AD421A04D882F05C
:101E70000042A0EB020011444FEAD0524FF07F4CD9
:101E80001CEA410FA2EBD15318BF9CEA026F4AD063
:101E90004FF0004C4CEA00204CEA012121FA03FCEF
:101EA000B0EB0C0C0FD412F0FE0F36D05FEA4C00F2
:101EB0001DD5001240EBC25038BF70471CF03F0FD9
:101EC00018BF70470BE0A2F101025FEA1C2040EB53
:101ED000C25038BF70471CF07F0F18BF7047C3F166
:101EE0002003994014BF401E20F001007047800875
:101EF0004FEA122308BF7047B0FA80FCA2EB0C0235
:101F0000CCF1280C60FA0CF093EA122F04BF00EB1E
:101F1000C25070474FEAC3707047130A5FEADC1083
:101F200008BF7047F6E79CEA026F04D010EA5C0F26
:101F300008BF0020704710B5FFF73BFF40DFF63EBB
:101F400081F0004070470CF00F03092B08BF0820F8
:101F500000F059800A2B0BD0082B18BF704708BF20
:101F60001CF0400F0AD04FF000004FF00001704706
:101F70001CF0400F18BF4FF0004070471CF0100FCE
:101F800008D020F0704300F07F4242EAD3014FEACC
:101F90004370704700F0604021F07F4242EA000247
:101FA00001F07F4040EA727070474FF0FF0C4CF434
:101FB000E06C1CEA11531CBF9CEA030C9445C2BFA1
:101FC000DA4201EB02517047002B0DD0BCF1000F3B
:101FD0000FD0002A01F00041A4BF41F0E04141F0E0
:101FE0007F614FF00000704701F000414FF00000AA
:101FF000704750EA01334FF09B0C18BF4CF0806CD7
:102000007FF466A970471CF4801F11D01CF4E02FE8
:1020100003D06FEACC31490070474FF04050EFF3E6
:10202000008222F0704242EA000282F30088704788
:102030004FF00000704700004FBB610567ACDD3F0B
:10204000182D4454FB21E93F9BF681D20B73EF3FDF
:10205000182D4454FB21F93FE2652F227F2B7A3C57
:10206000075C143326A6813CBDCBF07A8807703C10
:10207000075C143326A6913CC4EB98999999C9BF83
:10208000711623FEC671BCBF6D9A74AFF2B0B3BFB8
:102090009AFDDE522DDEADBF2F6C6A2C44B4A2BF78
:1020A0000D5555555555D53FFF8300922449C23FE4
:1020B0006E204CC5CD45B73F513DD0A0660DB13F18
:1020C000EB0D76244B7BA93F11DA22E33AAD903F2A
:1020D0000000000000000000F820000800000020C0
:1020E0000C00000028010008042100080C0000205A
:1020F000640200004401000800000000000000002D
:0421000000000000DB
:04000005080000ED02
:00000001FF
