:020000040800F2
:10000000600B0020A5010008A9010008AB01000851
:10001000AD010008AF010008B101000800000000B8
:10002000000000000000000000000000B301000814
:10003000B501000800000000B7010008B901000880
:10004000BB010008BB010008BB010008BB010008A0
:10005000BB010008BB010008BB010008BB01000890
:10006000BB010008BB010008BB010008BB01000880
:10007000BB010008BB010008BB010008BB01000870
:10008000BB010008BB010008BB010008BB01000860
:10009000BB010008BB010008BB010008270C0008D9
:1000A000BB010008BB010008BB010008BB01000840
:1000B000D551000895120008BD510008BB01000889
:1000C000BB010008BB010008BB010008BB01000820
:1000D000BB01000861080008C50A00086F0A000893
:1000E000BB010008BB010008BB01000800F002F8DA
:1000F00000F042F80AA090E8000C82448344AAF180
:100100000107DA4501D100F037F8AFF2090EBAE87D
:100110000F0013F0010F18BFFB1A43F0010318473B
:10012000A0A90000C0A90000103A24BF78C878C177
:10013000FAD8520724BF30C830C144BF04680C60ED
:10014000704700000023002400250026103A28BF35
:1001500078C1FBD8520728BF30C148BF0B60704739
:10016000642907F05780782907F0908000207047B5
:100170001FB51FBD10B510BD07F0E4FA1146FFF71B
:10018000F7FF00F02BF807F002FB03B4FFF7F2FFD4
:1001900003BC00F0FFFA000030BF72B662B680F315
:1001A0000888704708480047FEE7FEE7FEE7FEE7DD
:1001B000FEE7FEE7FEE7FEE7FEE7FEE70348044949
:1001C000044A054B70470000ED0000086005002060
:1001D000600B0020600700206007002008B50920A0
:1001E00000F07EFA482000F00BF9022000F063FADC
:1001F000012000F060FA00F073F900F0AFFC01F0AC
:100200009CFA03F0A7FB00F07CFF0BE05AA2002150
:10021000084600F054FF00F028FE00205A4908600C
:100220005A49086003F096FB0028EFD158A200213C
:10023000084600F044FF00F018FE002141F61F4080
:1002400004F0A2FB04F0FEFE04F049FF00F0DAFC2B
:100250004FF4165000F0B8FA4FF4E13000F0BAFB5A
:100260004FF4E13000F067FB04F0E2FB04F0C6FF5E
:1002700005F01DF84949086049A22821002000F036
:100280001EFF49A228213A2000F019FF47A2282189
:10029000502000F014FF41480068642190FBF1F405
:1002A0000C2002232246282100902D2000F0BDFEC4
:1002B0003A480068642190FBF1F201FB12040C2023
:1002C0000223224628210090442000F0AEFE33484D
:1002D0000068642190FBF1F201FB12000A2807DAA2
:1002E0000C2002230022282100903E2000F09DFED9
:1002F00023E0002000F043FD2D49087008460078F7
:10030000012809D12B4908702BA21421002000F0EC
:10031000D6FE00F0AAFD11E025480078022809D198
:100320002449087029A21421002000F0C8FE00F022
:100330009CFD03E0052000F09BF8DAE700BF04F025
:100340008BFB41F61F41632000F086FF0021084629
:1003500004F09AFB0FE0214A2149224803F045FBB3
:1003600048B9214A2149224801F0B1FA214A2249DB
:10037000224801F084FAEEE74D50553630353020F2
:100380004552524F52000000240000202800002057
:100390004D505536303530204F4B00005000002076
:1003A000566F6C74610000002E00000056000000C3
:1003B00055000020540000204D4F44453A417574CB
:1003C0006F20466F6C6C6F77000000004D4F444506
:1003D0003A20426C7565746F6F74680008000020E5
:1003E0000400002000000020100000200E0000206B
:1003F0000C00002016000020140000201200002035
:100400004FF0E021096921F004014FF0E022116171
:10041000C21700EB5272C2F3C702234B1A7019467F
:10042000097801EB4102C2EBC1114FF6FF7202EAFB
:10043000C1011E4A1180704701461B4A12784A4387
:100440004FF0E0235A6100229A6101221A6100BF35
:100450004FF0E022106900F001021AB100F480327E
:10046000002AF5D000224FF0E0231A619A6170470C
:1004700001460E4A12884A434FF0E0235A61002297
:100480009A6101221A6100BF4FF0E022106900F06A
:1004900001021AB100F48032002AF5D000224FF098
:1004A000E0231A619A61704756000020580000202E
:1004B000AD4A0A400243AD4B1A607047014607231C
:1004C00023EA01021202A94B1B1D18684FF6FF0315
:1004D0001840A74B18431043A44B1B1D18607047CE
:1004E00008B50020FFF7EAFF1D208DF8000000206E
:1004F0008DF8010001208DF802008DF80300684698
:1005000004F00DFF08BD2DE9F0410746884614466A
:100510001D462846FFF7D2FFC5F1040007FA00F692
:100520000F20284100EA0800064306F00F06E217F4
:1005300004EBD2625211920002F1E022D2F80021C3
:100540002146E31704EBD3635B11A4EB431C0123A7
:1005500003FA0CF31A432046E31704EBD3635B1151
:100560009B0003F1E023C3F800218248005D40EACC
:10057000061080490855BDE8F08170B504460B4669
:10058000CE1701EB9676C6F38700CE1701EB967671
:10059000B610A1EB8606B606350E774B9B6943F085
:1005A0000103754EB3614FEAB63353F820300F267E
:1005B000AE40B343714E46F82030334653F82030F6
:1005C00004FA05F61E436D4B43F820606C4B1B6824
:1005D00001268E4033436A4E336002F0010343B17B
:1005E000674B0C331B6801268E403343644E0C3638
:1005F000336002F0020343B1614B08331E680123EC
:100600008B401E435E4B08331E6070BD00B500205A
:1006100059490861C8601420486100208861C86198
:100620000846006840F001000860084640685549E7
:1006300008405149486008460068534908404E49FF
:1006400008600846006820F480200860084640687A
:1006500020F4FE0048600020886000214FF0006018
:10066000FFF726FF00BD10B540480830006840F095
:1006700004003E49083108603F48C06940F080509E
:100680003D49C8614148406840F480703F49486036
:100690000846006840F0040008600846006840F022
:1006A00002000860FFF778FD10BD3148001D2F499A
:1006B000091D08607047014649062F4A926942F0B9
:1006C00001022D4B9A612D4A083A526822F0E062ED
:1006D0002A4B083B5A601A4652680A435A607047D0
:1006E00030B504460025FFF791FF2348006840F429
:1006F00080302149086000BF1F480068400C002876
:10070000FAD04FF480601C494860A01EC4B208466D
:10071000406840EA844048600846406840F48030C1
:1007200048601B48006840F03200194908601248D0
:10073000006840F080701049086000BF0E480068F3
:10074000400E0028FAD00C48406840F002000A49E8
:10075000486005E008484068C0F3870505F00305D8
:10076000022DF7D130BD000080FFFF1F08ED00E033
:100770000000FA0500E400E000100240080001401B
:10078000000401400000FFF8FFFFF6FE007000408B
:1007900000200240014600BF704700BFDF4A1288B8
:1007A00002F04002002AF9D0C2B2DC4B1B1D1A80B5
:1007B0007047DA49091D088000BFD849098801F04F
:1007C00040010029F9D0704710B586B004460121D8
:1007D00044F2040005F028F94FF40070ADF814005D
:1007E00003208DF8160018208DF8170005A9CC48B5
:1007F00004F05EFE4FF48060ADF8140004208DF824
:10080000170005A9C64804F053FE25208DF8000006
:1008100003208DF801008DF8020001208DF80300FF
:10082000684604F07CFD01940020ADF80800ADF8A6
:100830000A00ADF80C00ADF810000C20ADF80E0069
:1008400001A9B64806F0A5F8012240F22551B348A7
:1008500006F037F90121B14806F027F906B010BDBE
:1008600010B540F22551AD4806F010FA002861D0CD
:10087000AA4806F08BF9044664B90020A94908701B
:10088000A9490870A9490870A94908700120A94917
:1008900008604FE0012C0CD10120A2490870002013
:1008A000A1490870A1490870A1490870A1490860D0
:1008B00040E0052C0DD100209A49087001209A498A
:1008C0000870002099490870994908709949086092
:1008D00030E0022C03D0032C01D0042C0DD10020D9
:1008E000904908709049087090490870012090491B
:1008F000087000208F4908601CE0062C03D0072CEC
:1009000001D0082C0DD10020864908708649087056
:1009100001208649087000208549087085490860D3
:1009200008E000207F4908707F4908707F490870FF
:100930007F49087010BD10B586B00446012108201B
:1009400005F072F80121880405F07BF84FF480600F
:10095000ADF8140003208DF8160018208DF817004C
:1009600005A9754804F0A4FD4FF40060ADF814002B
:1009700004208DF8170005A96F4804F099FD272081
:100980008DF8000002208DF801008DF80200012092
:100990008DF80300684604F0C2FC01940020ADF815
:1009A0000800ADF80A00ADF80C00ADF810000C20FE
:1009B000ADF80E0001A9614805F0EBFF012240F2FD
:1009C00025515E4806F07DF801215C4806F06DF87F
:1009D00006B010BD10B586B004460121042005F014
:1009E00023F80121480405F02CF80420ADF8140088
:1009F00003208DF8160018208DF8170005A9484827
:100A000004F056FD0820ADF8140004208DF81700FE
:100A100005A9434804F04CFD26208DF80000022073
:100A20008DF801008DF8020001208DF80300684662
:100A300004F075FC01940020ADF80800ADF80A0040
:100A4000ADF80C00ADF810000C20ADF80E0001A9B7
:100A50003B4805F09EFF012240F22551384806F040
:100A600030F80121364806F020F806B010BD10B568
:100A700040F22551314806F009F910B32F4806F02D
:100A800085F83049304A1278885408460078A528FD
:100A900003D000202C49087004E02B480078401C4B
:100AA000294908702848007803280AD100202649DF
:100AB0000870244880782349497840EA0120234976
:100AC000086010BD10B540F225511D4806F0DEF853
:100AD00010B31B4806F05AF81D491E4A1278885474
:100AE00008460078A52803D000201A49087004E0C1
:100AF00018480078401C17490870164800780328E9
:100B00000AD10020134908701148807810494978AB
:100B100040EA01201049086010BD00000038014083
:100B2000000801402C0000202D0000202E00002095
:100B30002F00002090012142000C0140004800409D
:100B40000044004031000020370000203C0000201D
:100B50003400002038000020400000201748806941
:100B600040F00400154988611548006820F47F2092
:100B7000134908600846006840F44C30086010488B
:100B80000C30006840F010000D490C3108607047CF
:100B900018B900210B4A11600FE00B490968491C84
:100BA000094A1160814208D106490968C943074AC8
:100BB000C2F890110021044A1160704700100240F1
:100BC0000008014090012142600000200000214205
:100BD0008248806940F0040080498861804800684C
:100BE00020F470007E4908600846006840F4000068
:100BF00008607B480C30006840F4004078490C31B4
:100C00000860704708B50121142004F00DFF4FF46F
:100C1000C040ADF8000028208DF8030069467148F7
:100C200004F046FC08BD10B50A20FFF721FC6E4811
:100C3000006830B96C487C300068C0436B49C1F82B
:100C4000900120206A49086010BD0146664800688E
:100C500028B968480088401C664A108002E00020DD
:100C6000644A10806048006828B96348007810B969
:100C70000120614A107061480078B0B95E48007880
:100C8000012807D15E480078401C5D4A10700120A1
:100C90005A4A10705A480078022806D10020584A53
:100CA0001070584A1080022070474F480068012891
:100CB00004D10020504A1070504A107050480078FB
:100CC00001281CD14F480088401C4E4A1080104615
:100CD000008888420ADD47480088884206DA0020FA
:100CE000474A1070474A10800120DDE741480088DC
:100CF000884204DD0020424A1070424A10800020E1
:100D0000D2E710B54048007868B13748006850B95C
:100D10000A20FFF7ADFB3448006850B900203A497B
:100D20000870012010BD30480068012801D1364903
:100D300008700020F6E73548008840B92A48006866
:100D400028B933480088401C3149088002E000205F
:100D50002F4908802E480088C82807DD01202B492C
:100D6000088000202A490880012070472748008811
:100D7000012802D10020254908800020F5E710B5A0
:100D8000044614B101202349087022480078C0B1FC
:100D90002148006818B12048001D006888B90A2061
:100DA000FFF766FB00201B4908701B4800680128FC
:100DB00000D110BD1848001D006801280BD1022089
:100DC000F7E71548006830B91348001D006810B9EE
:100DD0000120104908700020EBE7000000100240DD
:100DE000000801400010014014012142000021428E
:100DF000140401406A000020640000206500002007
:100E000066000020680000206C00002070000020B8
:100E10006E000020720000203401224210B50A4604
:100E20001AB10123FE4C236002E00023FC4C236036
:100E3000002114E00023FB4C236000F080031BB171
:100E40000123241F236003E00023F64C241F2360AA
:100E50000123F44C23604306180E4B1CD9B2082919
:100E6000E8DB0123EE4C236010BD30B500241CE00C
:100E700004F1B001C8B20021FFF7D0FF00210846FD
:100E8000FFF7CCFF00211020FFF7C8FF002508E086
:100E9000E54901EBC501085D0121FFF7BFFF681CB3
:100EA000C5B2802DF4DB601CC4B2082CE0DB30BD81
:100EB00000B500218D20FFF7B1FF00211420FFF7BE
:100EC000ADFF0021AF20FFF7A9FF00BD00B5002155
:100ED0008D20FFF7A3FF00211020FFF79FFF0021C7
:100EE000AE20FFF79BFF00BD30B500240CE00025CD
:100EF00006E00020CC4901EBC5010855681CC5B2CD
:100F0000802DF6DB601CC4B2082CF0DBFFF7ADFFD0
:100F100030BDF0B5144600267F2801DC3F2900DDF6
:100F2000F0BD0B46CF1701EB5777FF10C7F107074E
:100F3000FAB2CF1701EB5777FF10A1EBC707FDB24D
:100F4000C5F107070123BB40DEB24CB1B64B03EB42
:100F5000C0039B5C3343B44F07EBC007BB5408E0AE
:100F6000B14B03EBC0039B5CB343AF4F07EBC00730
:100F7000BB5400BFD4E72DE9F04F80460C46154620
:100F80001E46A346A5F12000C5B200273EE00C2E68
:100F900007D105EB4500A54901EB800010F807904B
:100FA00004E0A34800EB051010F807904FF0000A8A
:100FB00026E009F0800028B121464046099AFFF753
:100FC000A8FF09E0099808B9012000E000200246C6
:100FD00021464046FFF79DFF4FEA49604FEA1069FE
:100FE000601CC4B2A4EB0B00B04205D15C4608F112
:100FF000010000F0FF0806E00AF1010000F0FF0A1E
:10100000BAF1080FD5DB00BF781CC7B2B742BEDB10
:10101000BDE8F08F10B50246012000E050430B0000
:10102000A1F10104E1B2F9D110BD2DE9FF4F81B06A
:10103000074691461E460E9D4FF0000A002439E0F7
:10104000301B401EC1B20A20FFF7E4FFB9FBF0F0ED
:101050000A21B0FBF1F201FB1208BAF1000F16D120
:10106000701EA04213DDB8F1000F0ED10120AB4677
:1010700005EBDB71491001FB04710090C8B22B46EF
:1010800020220299FFF777FF12E04FF0010A0120BA
:10109000AB4605EBDB71491001FB04710090C8B24F
:1010A00008F13001CAB22B460299FFF764FF00BF76
:1010B000601CC4B2B442C3DB05B0BDE8F08F78B5A4
:1010C00005460E46144618E07A2D03DD002506F18C
:1010D0001000C6B23A2E04DD002005460646FFF792
:1010E00003FF0120009022780C2331462846FFF7A9
:1010F00042FF05F10800C5B2641C20780028E3D146
:1011000078BD00B54B48806940F0080049498861C6
:10111000494800684949084047490860084600684E
:1011200047490843444908604248806940F0040048
:10113000404988614348006820F070404149086098
:101140000846006840F00050086000203549083922
:10115000086001203C49C1F88C010021AE20FFF756
:101160005DFE0021D520FFF759FE00215020FFF73A
:1011700055FE0021A820FFF751FE00213F20FFF778
:101180004DFE0021D320FFF749FE00210846FFF75E
:1011900045FE00214020FFF741FE00218D20FFF792
:1011A0003DFE00211420FFF739FE00212020FFF72B
:1011B00035FE00210220FFF731FE0021A120FFF7BC
:1011C0002DFE0021C020FFF729FE0021DA20FFF7C5
:1011D00025FE00211220FFF721FE00218120FFF7CC
:1011E0001DFE0021EF20FFF719FE0021D920FFF797
:1011F00015FE0021F120FFF711FE0021DB20FFF793
:101200000DFE00213020FFF709FE0021A420FFF78A
:1012100005FE0021A620FFF701FE0021AF2015E00A
:10122000BC01214294812142EC0000209A920008E6
:101230000E97000800100240000C0140FF0F00FF55
:10124000002022000408014000802142FFF7E6FD53
:10125000FFF74AFE00BD00003EB505460C460121E1
:10126000022004F0EEFBADF80450ADF80040002081
:10127000ADF80600ADF802006946444804F00CFDE4
:1012800001221146414805F07EF801213F4805F052
:101290005FF83EBD10B501213C4805F022FB002857
:1012A00073D00121394805F02DFB39480078401CE6
:1012B0003749087008460078B0F5FA7F0AD13548FA
:1012C000006808B9012000E00020324908600020D1
:1012D0002F490870022003F04CFF2F4908600420BA
:1012E00003F047FF2D4908602D48B0F9000007F0D2
:1012F00089FD044621462B48006803F019FC2A4961
:101300000860264801682448006803F02DFC27493E
:1013100008602748B0F9000007F074FD0446224633
:101320001E4801681C48006803F00AFD2149086056
:101330001D4800681D49096808441E490968401A8B
:101340001D49086018480068184909680844194987
:10135000096808441949086003F0CBFB1849114893
:10136000006807F07BFE05D316490E48006807F0B9
:1013700075FD04D2002010490860104908600F482C
:1013800001680D48006803F07FFB10BD00040040B9
:1013900073000020900121421C000020200000204A
:1013A000120000200400002044000020480000201B
:1013B000160000204C0000202400002028000020FF
:1013C00000004842000048C210B50220FFF734F880
:1013D00010BD08B50121082004F026FB4FF4407031
:1013E000ADF8000010208DF8030003208DF80200F6
:1013F00069468A4804F05CF808BD10B58748001DAE
:10140000006820F0F0008549091D08600846006862
:1014100040F0300008600120814908608149C1F82E
:10142000A001FFF7D1FF00207D490860FFF7CCFF46
:1014300000207C49C1F8A00110BD10B57748001DFF
:10144000006820F0F0007549091D08600846006832
:1014500040F03000086000207149091F08607149A0
:10146000C1F8A401FFF7B0FF01206D49091F086012
:101470006C49C1F8A401FFF7A7FF10BD10B5002407
:101480006648001D006820F0F0006449091D0860EE
:101490000846006840F0800008600120604908604C
:1014A000FFF792FF01205F49C1F8A001FFF78CFF11
:1014B00007E0601CC4B2FA2C03DDFFF7BEFF012079
:1014C00010BD5748803800680028F2D15449091FE0
:1014D000086000BFF4E710B500205149091F0860FB
:1014E0004E48001D006820F0F0004C49091D0860BE
:1014F0000846006840F03000086000204949C1F803
:10150000A401FFF761FF01204549091F0860FFF7AB
:101510005BFF00204349C1F8A00110BD10B50020B9
:101520003F49091F08603D48001D006820F0F00099
:101530003A49091D08600846006840F0300008601C
:1015400001203849C1F8A401FFF73EFF01203449CA
:10155000091F0860FFF738FF00203249C1F8A001D9
:1015600010BD70B504462D48001D006820F0F00045
:101570002A49091D08600846006840F030000860EC
:1015800000202749091F0860002512E0E0092449CE
:1015900008606006040E01202249C1F8A001FFF78F
:1015A00013FF00201E49091F0860FFF70DFF681C8C
:1015B000C5B2082DEADB70BD70B50546002417489A
:1015C000001D006820F0F0001449091D086008465D
:1015D000006840F080000860002615E000201049F7
:1015E000091F0860FFF7F0FE01200E49C1F8A001B5
:1015F0006006040E0A488038006808B1601CC4B256
:10160000FFF7E2FE701CC6B2082EE7DB15B9FFF744
:1016100085FF01E0FFF75FFF204670BD000C014031
:10162000A48121420080214270B505460C46FFF797
:10163000E4FED020FFF795FFFFF720FF18B1FFF77A
:10164000FCFE012070BD2846FFF78BFFFFF716FF59
:101650002046FFF786FFFFF711FF18B1FFF7EDFEF9
:101660000120EFE7FFF7E9FE0020EBE770B5044645
:101670000025BC2C01DB012510E0622C01DB0225DA
:101680000CE02A2C01DB032508E0142C01DB0425E7
:1016900004E00A2C01DB052500E0062529461A2076
:1016A000FFF7C2FF70BD70B50446B4F57A7F01DD67
:1016B0004FF47A74042C00DA04244FF47A7090FB0F
:1016C000F4F0401EC5B229461920FFF7ADFF0546CC
:1016D000264604EBD671C1F34F00FFF7C7FF70BD7C
:1016E00070B50446FFF789FED020FFF73AFFFFF7F9
:1016F000C5FE2046FFF735FFFFF7C0FEFFF77DFE72
:10170000D120FFF72EFFFFF7B9FE0020FFF754FFAF
:101710000546FFF792FE284670BD10B50446E00668
:10172000010E1C20FFF780FF10BD10B50446E00637
:10173000010E1B20FFF778FF10BD10B5FFF749FE23
:1017400080216B20FFF770FF6420FEF791FE0021DF
:101750006B20FFF769FF0320FFF7E7FF0020FFF78B
:10176000DCFF3220FFF79FFF00213820FFF75CFFEE
:1017700000216A20FFF758FF00212320FFF754FFC4
:1017800080213720FFF750FF7520FFF7A9FF04469F
:10179000682C0BD101216B20FFF746FF00216C2044
:1017A000FFF742FF3220FFF77EFF01E0012010BD6E
:1017B0000020FCE72DE9F04106460F4614461D4681
:1017C000FFF71BFE002141EA4601C8B2FFF7C9FE40
:1017D000FFF754FE20B1FFF730FE0120BDE8F08195
:1017E0003846FFF7BEFEFFF749FEFFF706FE012170
:1017F00001EB4601C8B2FFF7B4FEFFF73FFE0DE074
:10180000012C04D10020FFF7D7FE287003E001204F
:10181000FFF7D2FE2870601EC4B26D1C002CEFD101
:10182000FFF70BFE0020D9E72DE9F84F6B460222A7
:1018300041216820FFF7BEFF9DF801009DF80010D0
:1018400040EA01200FFA80FA504606F0CEFD8046AD
:1018500000224B4B06F042FC06464A4A4A4B06F031
:1018600081FB044606F04CFB83464849584607F086
:1018700029FB044607F08AFA00B2BDE8F88F2DE98B
:10188000FC4104460D4616466B460622432168205D
:10189000FFF790FF0746BFB99DF801009DF80010C3
:1018A00040EA012000B220809DF803009DF802105C
:1018B00040EA012000B228809DF805009DF8041040
:1018C00040EA012000B230803846BDE8FC812DE9B5
:1018D000FC4104460D4616466B4606223B21682015
:1018E000FFF768FF0746BFB99DF801009DF800109B
:1018F00040EA012000B220809DF803009DF802100C
:1019000040EA012000B228809DF805009DF80410EF
:1019100040EA012000B230803846BDE8FC812DE964
:10192000F04105460E4617469846FFF766FD002132
:1019300041EA4501C8B2FFF714FEFFF79FFD20B151
:10194000FFF77BFD0120BDE8F0813046FFF709FE7F
:10195000FFF794FD00240CE018F80400FFF701FEE7
:10196000FFF78CFD18B1FFF768FD0120EBE7601C65
:10197000C4B2BC42F0DBFFF760FD0020E3E70000EB
:1019800000407540A4703D0AD74342400000C84261
:1019900038B50446F74890F82400C0B114B10220CD
:1019A000009001E000200090F24A1268D17BF14AD9
:1019B000526810786B460122FFF7B1FF10B14FF06B
:1019C000FF3038BD9DF80010EA48417423E0E94833
:1019D000807A10B94FF0FF30F3E724B1E548407C3E
:1019E00008B10020EDE714B10120009001E00020D3
:1019F0000090E04A1268D17BDE4A526810786B464C
:101A00000122FFF78CFF10B14FF0FF30D9E79DF8AE
:101A10000010D84841740020D3E738B500241FE0F7
:101A2000D4480068C07AA04204D0D2480068407D03
:101A3000A04200D112E0CF49496808786B460122E4
:101A40002146FFF7B7FE10B14FF0FF3038BD9DF8CB
:101A500000202146C8A005F0A9FB00BF601CC4B24D
:101A6000C44840680079A042DADC0020EEE770B597
:101A700004460D46BF480068C07AA04204D0BD4865
:101A80000068407DA04202D14FF0FF3070BDB948E0
:101A900040680079A04202DC4FF0FF30F6E7B5491C
:101AA000496808782B4601222146FFF783FEEDE7BF
:101AB00038B50446AF4890F82300A04201D1002079
:101AC00038BD14B13020009001E000200090A948FA
:101AD000807C20B19DF8000040F002000090A548F5
:101AE00090F8220020B19DF8000040F080000090A6
:101AF000A04A1268117D9F4A526810786B460122F5
:101B0000FFF70DFF10B14FF0FF30D9E7994880F88B
:101B100023400020D4E738B5044604F0700010B12B
:101B20000120009005E014B10020009001E0402069
:101B30000090904A1268917C8E4A526810786B46E9
:101B40000122FFF7ECFE20B100218A488172481E75
:101B500038BD9DF8000020F0400186480173002048
:101B6000009004F0400020B99DF8000040F004000F
:101B7000009004F0200020B99DF8000040F0020021
:101B8000009004F0100020B99DF8000040F0010022
:101B9000009004F0080020B99DF8000040F03800E3
:101BA0000090744A1268D17C724A526810786B4671
:101BB0000122FFF7B4FE20B100216E488172481E59
:101BC000C6E724B1082C02D00020FFF771FF694856
:101BD0008472002101753220FEF74AFC0020B7E72D
:101BE00038B504466348807CA04201D1002038BD4E
:101BF000002C46D05F4A126811795E4A526810780C
:101C00006B460122FFF7D6FD10B14FF0FF30EEE733
:101C10009DF8000020F020000090564A12681179CB
:101C2000544A526810786B460122FFF778FE10B1D3
:101C30004FF0FF30DBE70320FEF71AFC0220009094
:101C40004C4890F8220020B19DF8000040F0800040
:101C50000090484890F8230020B19DF8000040F023
:101C600030000090434A1268117D424A5268107851
:101C70006B460122FFF753FE002851D04FF0FF3092
:101C8000B5E73C4A126811793A4A526810786B46B7
:101C90000122FFF78FFD10B14FF0FF30A7E7354865
:101CA000807A00F0010028B19DF8000040F020008B
:101CB000009004E09DF8000020F0200000902D4AE4
:101CC000126811792B4A526810786B460122FFF78F
:101CD00026FE10B14FF0FF3089E70320FEF7C8FB66
:101CE000244890F8220010B18020009001E00020EC
:101CF0000090204890F8230020B19DF8000040F0AB
:101D0000300000901B4A1268117D1A4A5268107800
:101D10006B460122FFF703FE10B14FF0FF3066E77C
:101D200014488474002062E708B51248807A10B91C
:101D30004FF0FF3008BD002000900E4A1268D17BA2
:101D40000C4A526810786B460122FFF7E8FD10B18B
:101D50004FF0FF30EEE7074A12685179054A5268A2
:101D600010786B460122FFF7DAFD68B14FF0FF30C3
:101D7000E0E7000074000020252335783A20252371
:101D800035780D0A00000000F84A12681179F74A08
:101D9000526810786B460122FFF7C1FD10B14FF079
:101DA000FF30C7E7F14890F82400002853D00C20FA
:101DB0000090EE4A12681179EC4A526810786B462E
:101DC0000122FFF7ACFD10B14FF0FF30B2E7322037
:101DD000FEF74EFBC0200090E448807A00F001003E
:101DE00020B19DF8000040F020000090DF4A12680A
:101DF0001179DE4A526810786B460122FFF78FFD99
:101E000010B14FF0FF3095E7D848407C10B1022068
:101E1000009001E000200090D44A1268D17BD34AA0
:101E2000526810786B460122FFF779FD10B14FF030
:101E3000FF307FE700200090CC4A12685179CB4AEE
:101E4000526810786B460122FFF769FD002855D0D3
:101E50004FF0FF306EE704200090C44A12681179F9
:101E6000C24A526810786B460122FFF758FD10B144
:101E70004FF0FF305EE7BD48807C20B9BB48807AD8
:101E800000F0010010B94020009001E060200090B7
:101E9000B64A12681179B54A526810786B46012229
:101EA000FFF73DFD10B14FF0FF3043E73220FEF762
:101EB000DFFAAE48407C10B10120009001E0002024
:101EC0000090AA4A1268D17BA84A526810786B46E3
:101ED0000122FFF724FD10B14FF0FF302AE7A34A9B
:101EE00012685179A14A52681078A04B1033012230
:101EF000FFF715FD10B14FF0FF301BE7002019E789
:101F000070B50446002624F00104984890F8240097
:101F100008B1002070BD9548807A10B94FF0FF30AD
:101F2000F8E79248057C807A20409049087408467A
:101F3000007CA04202D04FF0FF3600E0002614B92A
:101F40008A48007D18B10120FFF722FD02E0002041
:101F5000FFF71EFD3CB1FFF7E7FE20B18348057493
:101F60004FF0FF30D6E73046D4E738B504467F4817
:101F7000807A10B94FF0FF3038BDBC2C02DB012055
:101F8000009015E0622C02DB0220009010E02A2C69
:101F900002DB032000900BE0142C02DB04200090F5
:101FA00006E00A2C02DB0520009001E006200090EC
:101FB0006E48C07A9DF80010884201D10020DBE70E
:101FC0006A4A12689178694A526810786B46012211
:101FD000FFF7A5FC10B14FF0FF30CDE79DF80010E2
:101FE0006248C1720020C7E738B50446282C02DDDC
:101FF0004FF0FF3038BDDCB90020FFF759FD00205D
:102000008DF8000007208DF80100584A1268917C75
:10201000564A526810786B460222FFF780FC10B1D6
:102020004FF0FF30E6E70021504801750020E1E75E
:102030000120FFF73DFD20208DF80000012C06D186
:1020400000208DF801000520FFF78FFF17E0052C19
:1020500006DC01208DF801000520FFF786FF0EE069
:10206000142C06DC02208DF801000A20FFF77DFF0A
:1020700005E003208DF801001420FFF776FF9DF89E
:102080000100072101EB8010C0B28DF80100374A32
:102090001268917C354A526810786B460222FFF72D
:1020A0003EFC10B14FF0FF30A4E708212F488172A9
:1020B00000210173012101750020FFF721FF00209D
:1020C00098E738B504462948807A10B94FF0FF30B8
:1020D00038BD264890F8240010B14FF0FF30F7E7E4
:1020E0002248007D50B134B1282C04DCE0B2FFF767
:1020F0007BFF0020ECE70020FFF776FF042C01DADD
:10210000042404E0B4F57A7F01DD4FF47A744FF4CF
:102110007A7090FBF4F0401EC0B20090134A12682F
:102120005178124A526810786B460122FFF7F7FB8C
:1021300010B14FF0FF30CBE79DF80000401C4FF48A
:102140007A7191FBF0F081B20848C1810146C989DA
:102150004810FFF70AFF0020BAE738B504460348E5
:10216000807A28B94FF0FF3038BD0000740000209D
:10217000022C06D0042C07D0082C08D0102C0CD12F
:1021800008E0002000900BE00820009008E01020FC
:10219000009005E01820009002E04FF0FF30E3E7E8
:1021A00000BFF948407A9DF80010B0EBE10F01D173
:1021B0000020D9E7F44A1268D179F34A52681078BE
:1021C0006B460122FFF7ABFB10B14FF0FF30CBE7BE
:1021D0009DF80000C110EC4841720020C4E738B5FA
:1021E0000446E948807A10B94FF0FF3038BDFA2C28
:1021F00009D0B4F5FA7F09D0B4F57A7F09D0B4F5E7
:10220000FA6F0CD108E0002000900BE0082000904D
:1022100008E01020009005E01820009002E04FF048
:10222000FF30E3E700BFD848007A9DF80010B0EB1C
:10223000E10F01D10020D9E7D34A12689179D24A3F
:10224000526810786B460122FFF769FB10B14FF01E
:10225000FF30CBE79DF80000C010CB49087200208A
:10226000C4E71CB580208DF80000C74A1268917C35
:10227000C54A526810786B460122FFF750FB10B137
:102280004FF0FF301CBD6420FEF7F2F800208DF8FF
:102290000000BD4A1268917CBB4A526810786B46B8
:1022A0000122FFF73CFB10B14FF0FF30EAE7B64ADE
:1022B0001268917DB44A526810786B460622FFF787
:1022C00079FA10B14FF0FF30DCE79DF80500C00748
:1022D000400F9DF8031001F0010140EA41009DF814
:1022E000011001F0010140EA010494B1012C03D175
:1022F0000121A548C17431E0022C03D10021A2487C
:10230000C1742BE02146A1A004F050FF4FF0FF3034
:10231000B8E79D4A1268D1789B4A526810786B469C
:102320000122FFF747FA10B14FF0FF30AAE79DF8FE
:10233000000000F00F042CB99E4804F037FF4FF066
:10234000FF309FE7042C06D19BA004F02FFF012152
:102350008D48C17402E000218B48C174FF218A4876
:102360008172FF2088490872FF2187484172C1723B
:102370004FF6FF71C181FF21017481740121017346
:1023800080F82210002180F8231041750175163065
:10239000016041608160163880F8241080F82510B3
:1023A000C1844FF4FA60FFF71AFF10B14FF0FF300D
:1023B00068E70220FFF7D1FE10B14FF0FF3061E770
:1023C0002A20FFF7D2FD10B14FF0FF305AE732203C
:1023D000FFF777FE10B14FF0FF3053E70020FFF713
:1023E0008FFD10B14FF0FF304CE70020FFF7F8FBF6
:1023F00010B14FF0FF3045E70020FFF78CFB0020C5
:1024000040E770477CB504460D465F48807A00F08F
:10241000700010B94FF0FF307CBD5B4A1268117B31
:10242000594A526810786B460622FFF7C3F910B17B
:102430004FF0FF30F0E79DF801009DF8001040EAF2
:10244000012000B220809DF803009DF8021040EAB0
:10245000012000B260809DF805009DF8041040EA5C
:10246000012000B2A08015B12846FFF7CAFF002066
:10247000D2E77CB504460D464348807A00F0080058
:1024800010B94FF0FF307CBD3F4A1268517B3E4A85
:10249000526810786B460622FFF78CF910B14FF0A6
:1024A000FF30F0E79DF801009DF8001040EA0120A0
:1024B00000B220809DF803009DF8021040EA012040
:1024C00000B260809DF805009DF8041040EA0120EC
:1024D00000B2A08015B12846FFF793FF0020D2E795
:1024E0002DE9FE4F05460C462748807A18B94FF073
:1024F000FF30BDE8FE8F244A1268917B224A526861
:10250000107802AB0222FFF755F910B14FF0FF30FF
:10251000EFE79DF809009DF8081040EA012006B297
:1025200014B12046FFF76DFF17494968C88806F0C7
:1025300081FC154901904968B1F9080006F062FC78
:102540008346304606F05EFC5946009006F0B8FD22
:102550008246019906F024FB81461F4906F0B2FA33
:1025600080464FF08F4106F0ADFC074606F00EFCAA
:1025700028600020BDE710B588B004461CB94FF0B4
:10258000FF3008B010BD29E074000020556E73754F
:1025900070706F7274656420736F667477617265B2
:1025A0002070726F64756374207265762025642EC6
:1025B0000A00000070AA000848616C662073656E0E
:1025C0007369746976697479207061727420666FBA
:1025D000756E642E0A00000000000C42206830B9BD
:1025E000606820B9A06810B9002008B010BDFA4991
:1025F0004968087806AB03221146FFF7DBF810B1F3
:102600004FF0FF30F1E79DF81800082101EB201092
:1026100000F00F00ADF800009DF8190001EB20104C
:1026200000F00F00ADF802009DF81A0001EB201039
:1026300000F00F00ADF8040020684100BDF9000073
:10264000403091FBF0F000B2ADF81000606841003E
:10265000BDF90200403091FBF0F000B2ADF812007D
:10266000A0684100BDF90400403091FBF0F000B2D9
:10267000ADF81400D8494968087806AB062211461F
:10268000FFF798F810B14FF0FF30AEE79DF8190052
:102690009DF8181040EA012000B2ADF808009DF83E
:1026A0001B009DF81A1040EA012000B2ADF80A00A4
:1026B0009DF81D009DF81C1040EA012000B2ADF805
:1026C0000C00BDF81000BDF80810084400B2ADF8C9
:1026D0001000BDF81200BDF80A10084400B2ADF8B1
:1026E0001200BDF81400BDF80C10084400B2ADF89B
:1026F0001400BDF81000000A8DF81800BDF8100095
:10270000C0B28DF81900BDF81200000A8DF81A0049
:10271000BDF81200C0B28DF81B00BDF81400000A0D
:102720008DF81C00BDF81400C0B28DF81D00AA4938
:102730004968087806AB06221146FFF7F0F810B199
:102740004FF0FF3051E700204FE70146A248007AE2
:1027500030B1012807D0022809D003280FD10AE0A0
:10276000FA2008800EE04FF4FA7008800AE04FF477
:102770007A70088006E04FF4FA60088002E00020DA
:10278000088000BF00BF0020704701469248407A91
:1027900030B1012807D0022808D003280CD108E066
:1027A000022008700BE00420087008E00820087080
:1027B00005E01020087002E04FF0FF30704700BFC6
:1027C0008548C07C18B108784006000E08700020CB
:1027D000F4E701468048C07A082817D2DFE800F005
:1027E0001704070A0D101318BC20088013E062209C
:1027F000088010E02A2008800DE0142008800AE0FC
:102800000A20088007E00520088004E000BF00BF20
:102810000020088000BF00BF0020704701466E48BE
:1028200090F8240010B14FF0FF3070476A48C0891B
:1028300008800020F9E7014600200880401E70470C
:1028400001464FF0FF30704701466348007A30B1CF
:10285000012807D0022808D003280CD108E05F48DF
:1028600008600BE05E48086008E05E48086005E02C
:102870005D48086002E04FF0FF30704700BF002065
:10288000FBE701465448407A30B1012808D00228BD
:102890000AD0032810D10BE04FF4804008800EE0EE
:1028A00041F69C7008800AE04FF48050088006E0F2
:1028B0004FF40060088002E04FF0FF30704700BF27
:1028C0004548C07C10B10888401008800020F5E71A
:1028D00001464148007C08700020704701463E4890
:1028E000807A10B10120087001E0002008700020FB
:1028F000704738B504463848807A10B94FF0FF3039
:1029000038BD354A1268117C334A526810786B46DC
:102910000222FEF74FFF10B14FF0FF30F0E79DF8B5
:1029200001009DF8001040EA012000B22080002044
:10293000E6E72DE9FE4F0746884692461D46DDF83C
:1029400030B000260024244890F8240010B1601E06
:10295000BDE8FE8F002028701F48807A10B94FF024
:10296000FF30F5E71C48007C10B94FF0FF30EFE76F
:102970001948007C00F0400008B1B01CC6B21648EF
:10298000007C00F0200008B1B01CC6B21248007CE8
:1029900000F0100008B1B01CC6B20F48007C00F077
:1029A000080008B1B01DC6B20B4A1268917A0A4AF3
:1029B000526810786B460222FEF7FCFE10B14FF011
:1029C000FF30C5E79DF801009DF8001040EA01299D
:1029D000B1450BDA0020BBE7740000200000034380
:1029E000000083423333034233338341FC48406861
:1029F0004088B9EB600F17DDF94A1268517CF84A3C
:102A0000526810786B460122FEF7D4FE10B14FF0E9
:102A1000FF309DE79DF8000000F0100020B1FFF7A7
:102A200083F96FF0010093E75046FFF7EAFCEC4AA8
:102A30001268D17AEA4A526810786B463246FEF73D
:102A4000B9FE10B14FF0FF3082E799FBF6F0401E5F
:102A50008BF8000000202870B4422AD0E048007CA7
:102A600000F0080028B3601C1DF800001DF80410D9
:102A700040EA012000B2A8F80000E01C1DF8001098
:102A8000A01C1DF8000041EA002000B2A8F80200D6
:102A9000601D1DF80010201D1DF8000041EA0020F7
:102AA00000B2A8F80400287840F008002870A01DA3
:102AB00084B2B44213D0CA48007C00F0400070B128
:102AC000601C1DF800001DF8041040EA012000B24F
:102AD0003880287840F040002870A01C84B2B442AE
:102AE00013D0BF48007C00F0200070B1601C1DF8BE
:102AF00000001DF8041040EA012000B27880287818
:102B000040F020002870A01C84B2B44213D0B44816
:102B1000007C00F0100070B1601C1DF800001DF872
:102B2000041040EA012000B2B880287840F010007C
:102B30002870A01C84B200200AE7F8B504460F46AE
:102B40001646A74890F8240010B94FF0FF30F8BDA2
:102B5000A348807A10B94FF0FF30F8E7A04A126816
:102B6000917A9F4A526810786B460222FEF722FE45
:102B700010B14FF0FF30EAE79DF801009DF800101A
:102B800040EA0125A54203DA00203070401EDEE74E
:102B9000934840684088B5EB600F17DD904A126893
:102BA000517C8F4A526810786B460122FEF702FE74
:102BB00010B14FF0FF30CAE79DF8000000F01000A0
:102BC00020B1FFF7B1F86FF00100C0E7E2B2844B2B
:102BD0001B68D97A824B5B6818783B46FEF7EAFDA2
:102BE00010B14FF0FF30B2E795FBF4F0401E3070AB
:102BF0000020ACE701467A4880F822100020704798
:102C00007CB5054676494968087801AB04220D2158
:102C1000FEF7D0FD08B107207CBD9DF80700C0F38A
:102C200001109DF8041001F0E00140EAE1008DF888
:102C300000009DF80700C0F381009DF8051001F029
:102C4000E00140EAE1008DF801009DF8070000F086
:102C500003009DF8061001F0E00140EAE1008DF864
:102C6000020000241CE01DF8040018B9002045F8FB
:102C7000240013E05B4845F8240006E055F82400E2
:102C8000594906F01FF945F824001DF80400401EBC
:102C9000C0B20DF804000028F0D100BF601CC4B21F
:102CA000032CE0DB0020B7E72DE9FE4F06460F4678
:102CB00000256846FFF7A4FF002442E056F82400F0
:102CC00057F82410A0EB010ABAF1000F01DB5146BE
:102CD00001E0CAF10001084606F094F883464FF07F
:102CE0008F4105F05DFF80465DF82400002106F06D
:102CF00019F816D05DF82410404605F051FF8246C1
:102D00004FF07E5106F0DCF9814629F0004A374841
:102D1000416A504606F0A2F912D20120A0400543B4
:102D20000EE03248C169404606F098F805D32F48B6
:102D3000016A404606F092F902D20120A040054304
:102D4000641C032CBADB2846BDE8FE8F2DE9FC5F2E
:102D500006460F46002522494968087801AB032240
:102D60000D21FEF727FD10B10720BDE8FC9F9DF85F
:102D7000040000F01F008DF804009DF8050000F02D
:102D80001F008DF805009DF8060000F01F008DF86B
:102D90000600002462E056F8240057F82410A0EB47
:102DA000010BBBF1000F01DB594601E0CBF1000143
:102DB000084606F027F84FF08F41009005F0F0FE2E
:102DC000814601A8005DC0B30849086806F032F8E2
:102DD00083465946064805F0E3FE80460FE00000B2
:102DE000740000207B14AE3E1D5A843F289D0008CD
:102DF00000B04C45FE49404606F064F8804601A804
:102E0000005D401EC0B201A908550028F2D141461C
:102E1000484605F0C5FE83464FF07E5106F050F956
:102E200082462AF0004BF3488169584606F016F9AD
:102E300013D20120A04005430FE0FFE7ED480169F0
:102E4000484606F00BF805D3EA484169484606F0C3
:102E500005F902D20120A0400543641C032C9ADB33
:102E6000284682E72DE9F04F87B005460C4691468B
:102E700001208DF8100000208DF81100DE4A126844
:102E8000917CDD4A5268107804AB0222FEF747FDC0
:102E900020B14FF0FF3007B0BDE8F08FC820FDF73C
:102EA000E7FA00208DF81000D34A1268D17BD24A8D
:102EB0005268107804AB0122FEF731FD10B14FF0DB
:102EC000FF30E8E7CC4A12685179CB4A5268107853
:102ED00004AB0122FEF723FD10B14FF0FF30DAE71B
:102EE000C54A1268917CC44A5268107804AB01222A
:102EF000FEF715FD10B14FF0FF30CCE7BE4A126867
:102F0000D17DBD4A5268107804AB0122FEF707FD5F
:102F100010B14FF0FF30BEE7B74A12681179B64AD8
:102F20005268107804AB0122FEF7F9FC10B14FF0A3
:102F3000FF30B0E70C208DF81000AF4A126811790D
:102F4000AD4A5268107804AB0122FEF7E8FC10B1DC
:102F50004FF0FF309FE70F20FDF78AFAA648806AFE
:102F6000407A8DF81000A44A12689178A24A5268FB
:102F7000107804AB0122FEF7D2FC10B14FF0FF3005
:102F800089E79D48806A007A8DF810009A4A126895
:102F90005178994A5268107804AB0122FEF7BFFCC1
:102FA00010B14FF0FF3076E7B9F1000F07D092482B
:102FB000806A807A40F0E0008DF8100004E08E48CE
:102FC000806A807A8DF810008B4A126891798A4A5B
:102FD0005268107804AB0122FEF7A1FC10B14FF04B
:102FE000FF3058E7B9F1000F07D08348806AC07AF4
:102FF00040F0E0008DF8100003E07E48C07A8DF8C4
:1030000010007D4A1268D1797B4A5268107804AB6F
:103010000122FEF784FC10B14FF0FF303BE7B9F11D
:10302000000F02D0C820FDF723FA40208DF81000D1
:10303000714A12681179704A5268107804AB012203
:10304000FEF76DFC10B14FF0FF3024E778208DF8CB
:103050001000694A12685179674A5268107804ABC7
:103060000122FEF75CFC10B14FF0FF3013E761491D
:103070008889FDF7FDF900208DF810005E4A12687E
:1030800051795D4A5268107804AB0122FEF747FC83
:1030900010B14FF0FF30FEE6574A1268917A564A57
:1030A0005268107804AB0222FEF784FB10B14FF097
:1030B000FF30F0E69DF811009DF8101040EA012B5A
:1030C0000C209BFBF0F0C6B20020A860686028606E
:1030D000A06060602060824665E0474A1268D17A4D
:1030E000454A5268107804AB0C22FEF763FB10B11E
:1030F0004FF0FF30CFE69DF811009DF8101040EA28
:10310000012000B2ADF808009DF813009DF81210E0
:1031100040EA012000B2ADF80A009DF815009DF8C4
:10312000141040EA012000B2ADF80C00BDF90810FF
:10313000206808442060BDF90A1060680844606097
:10314000BDF90C10A0680844A0609DF817009DF818
:10315000161040EA012000B2ADF800009DF81900F9
:103160009DF8181040EA012000B2ADF802009DF869
:103170001B009DF81A1040EA012000B2ADF80400CF
:10318000BDF90010286808442860BDF9021068687D
:1031900008446860BDF90410A8680844A8600AF1F2
:1031A000010000F0FF0AB24597DB1248D0F800C0DA
:1031B0002868C117090441EA104107046246002348
:1031C000384603F0CFFF32460023CDE9020103F079
:1031D000C9FF28600748D0F800C06868C117090413
:1031E00041EA1041070462460023384606E0000029
:1031F00054E3853F289D00087400002003F0B2FFCF
:1032000032460023CDE9020103F0ACFF6860FE48BE
:10321000D0F800C0A868C117090441EA10410704AA
:1032200062460023384603F09DFF32460023CDE975
:10323000020103F097FFA860F348D0F804C02168AA
:10324000C817000440EA11480F04624600233846BC
:10325000414603F087FF32460023CDE9020103F027
:1032600081FF2060E848D0F804C06068C1170904F5
:1032700041EA1041070462460023384603F072FF1A
:1032800032460023CDE9020103F06CFF6060DE48A6
:10329000D0F804C0A068C117090441EA104107042E
:1032A00062460023384603F05DFF32460023CDE935
:1032B000020103F057FFA060A068002804DDA068A9
:1032C000A0F58030A06003E0A06800F58030A06029
:1032D0000020E0E538B50446CC4890F82400A04230
:1032E00001D1002038BD24B3C84890F8250010B99A
:1032F0004FF0FF30F6E70020FEF74AFB0020FEF714
:103300006FFCC249C88CFEF7DCFE00200090BF496C
:10331000496808786B4601222321FEF700FB012152
:10332000BA4880F824100120FEF732FBFEF7FCFCBF
:1033300013E00020FEF72CFBB448007C0090B3495A
:10334000496808786B4601222321FEF7E8FA00213C
:10335000AE4880F82410FEF7E7FC0020C2E72DE914
:10336000F04F8DB083460F4602200C90A74890F88E
:10337000240020B10020FFF7ADFF012600E0002669
:1033800003A8FFF7E2F905A8FFF7FFF901A8FFF787
:1033900020FA02A8FFF742FA9C4890F80AA004A875
:1033A000FFF796FA002407E0002239465846FFF757
:1033B00059FD00B902E0641C022CF5DB00BF022CB1
:1033C00001D1002528E0002407E0012206A909A870
:1033D000FFF748FD00B902E0641C022CF5DB00BFDA
:1033E000022C01D1002517E006A93846FFF75CFC46
:1033F00000F0FF0809A95846FFF7A8FC00F0FF09F4
:103400000025B9F1000F01D145F00105B8F1000F19
:1034100001D145F0020500BFFF207C490872FF2161
:103420007A484172C1724FF6FF71C181FF218172EA
:10343000017401210173BDF80C00FEF7D0FE9DF868
:103440001400FEF78AFEBDF80400FEF78EFDBDF8FD
:103450000800FEF736FE5046FEF75DFB9DF81000B3
:10346000FEF74EFD16B10120FFF734FF28460DB0E0
:10347000BDE8F08FF8B504460D46164616B94FF074
:10348000FF30F8BD6148807A10B94FF0FF30F8E79F
:1034900020128DF80000E0B28DF801009DF80100C7
:1034A00028445A4949684989884202DD4FF0FF3073
:1034B000E7E7564A1268117E544A526810786B4604
:1034C0000222FEF72CFA10B14FF0FF30D9E7EAB232
:1034D0004E4B1B68597D4D4B5B6818783346FEF7A1
:1034E0001EFA10B14FF0FF30CBE70020C9E7F8B566
:1034F00004460D46164616B94FF0FF30F8BD434856
:10350000807A10B94FF0FF30F8E720128DF80000F4
:10351000E0B28DF801009DF8010028443B4949685C
:103520004989884202DD4FF0FF30E7E7374A1268E9
:10353000117E364A526810786B460222FEF7EFF988
:1035400010B14FF0FF30D9E7EAB2304B1B68597D1C
:103550002E4B5B6818783346FEF72CF910B14FF00C
:10356000FF30CBE70020C9E72DE9F04385B00546E1
:103570000E4690469946254890F8250020B14FF018
:10358000FF3005B0BDE8F08316B94FF0FF30F8E723
:10359000002423E0281B102801DD102000E0281B58
:1035A00087B2321939462046FFF764FF10B14FF059
:1035B000FF30E6E701AA39462046FFF798FF10B131
:1035C0004FF0FF30DDE730193A4601A903F026FF3E
:1035D00010B16FF00100D4E7E01984B2AC42D9DB3E
:1035E0004FEA28208DF8000008F0FF008DF8010058
:1035F000064A1268917E054A526810786B4602228C
:10360000FEF78DF938B103E0289D00087400002012
:103610004FF0FF30B5E70121FE4880F82510A0F8F3
:1036200026900020ADE70146FA4890F82400087083
:10363000002070474FF0FF30704702464FF0FF30D8
:10364000704701464FF0FF307047F8B505460F460A
:103650001446002C70D0B5F5FF5F01DDFF2605E0B4
:10366000202D01DA012601E0C5F3471607B901272D
:10367000282C02DD4FF0FF30F8BDE648407D28BB26
:10368000E44890F8240038B10020FFF723FE012120
:10369000E04880F8201003E00021DE4880F8201088
:1036A000DC481630FFF751F8DA481830FFF76DF8AC
:1036B000D8481A30FFF78DF8D6481C30FFF7AEF81F
:1036C000D448817A81771F30FFF702F90020FEF796
:1036D0005FF90020FEF788FC00208DF80000CD4A3D
:1036E00012689178CB4A526810786B460122FEF737
:1036F00016F910B14FF0FF30BEE740208DF8000002
:10370000C44A1268D17BC34A526810786B460122C2
:10371000FEF705F900B165E08DF800608DF80170E5
:10372000BC4A1268117ABB4A526810786B46022272
:10373000FEF7F5F808B155E047E00520FCF798FEE4
:10374000B448407A072101EBC000C0B28DF80000F8
:10375000B04A1268D179AF4A526810786B4601229C
:10376000FEF7DDF800B13DE020208DF80000012CCF
:1037700003D100208DF801000EE0052C03DC0120B0
:103780008DF8010008E0142C03DC02208DF8010004
:1037900002E003208DF801009DF80100072101EBF4
:1037A0008010C0B28DF801009A4A1268917C994A43
:1037B000526810786B460222FEF7B1F800B111E0B2
:1037C000012194484175002056E7924A16320021A3
:1037D00003E0505C00B105E0491C0C29F9D34FF01F
:1037E000FF3049E7FF208B490872FF218948417269
:1037F000C1724FF6FF71C181FF21817201740121F5
:1038000001730146887FFEF786F98249C88AFEF770
:10381000E6FC8049087EFEF7A0FC7E49488BFEF757
:10382000A4FB7C49888BFEF74CFC7A49C87FFEF7E5
:1038300067FB784890F8200010B10120FFF74AFD9F
:10384000002174484175002016E770B588B002A9C0
:1038500005A8FFF784FD0446072C3ED101A8FEF71A
:10386000F3FF059805F0CEFA0646019905F02AFB0C
:10387000054605F08BFA0590069805F0C3FA064652
:10388000019905F01FFB054605F080FA06900798A0
:1038900005F0B8FA0646019905F014FB054605F057
:1038A00075FA079005A800F052FA6846FEF7E9FF9E
:1038B000BDF80010029848430290BDF8001003982C
:1038C00048430390BDF8001004984843049002A8B0
:1038D00000F0D0FA002008B070BD0120FBE70146DF
:1038E00091F90020002A01DD00201EE091F900205E
:1038F000002A01DA042018E091F90120002A01DDF4
:10390000012012E091F90120002A01DA05200CE0E3
:1039100091F90220002A01DD022006E091F902203F
:10392000002A01DA062000E00720704710B504469F
:103930002046FFF7D4FF0346E01CFFF7D0FF43EA21
:10394000C00083B2A01DFFF7CAFF43EA801083B214
:10395000184610BD70B50024FDF73BFDFEF781FC55
:1039600000283ED17820FEF7D6F8C4B20CB1012071
:1039700070BD7820FEF7C4FAC4B20CB10220F7E79C
:10398000C820FEF79EFBC4B20CB10320F0E700F0A4
:1039900043F9C4B20CB10420EAE71F48FFF7C6FFA1
:1039A000054600F043F9C4B20CB10520E0E740F24F
:1039B000731000F07CFDC4B20CB10620D8E7C8201B
:1039C00000F0EEFAC4B20CB10720D1E7FFF73DFFDB
:1039D00004460120FFF77EFCC0B204461CB109205A
:1039E000C6E70A20C4E700BFC2E72DE9F04F99B04F
:1039F00004460D4616464FF07E574FF000084FF034
:103A000000094FF0000A12A813A918AB0EAACDE9BD
:103A1000001003E074000020A000002014A916A8E4
:103A200000F0A4FE18B1012019B0BDE8F08FBDF878
:103A30004C0000F4807000287ED00E9805F0E2F96A
:103A400083464FF09D4105F0ABF807460F9805F00F
:103A5000D9F983464FF09D4105F0A2F880461098B1
:103A600005F0D0F983464FF09D4105F099F8814665
:103A7000119805F0C7F983464FF09D4105F090F885
:103A8000824639464FF0804005F01CFA49460590C1
:103A900005F018FA414607904FF0404005F012FA41
:103AA0005146059005F00EFA0690079905F00AF8C0
:103AB000834604F0DBFFCDE9080103F0F3FE4FF08D
:103AC0006632544BCDE90A0104F0F6FCCDE90C0155
:103AD00004F016FA206049464FF0804005F0F2F9F4
:103AE0004946029005F0EEF9414604904FF04040FF
:103AF00005F0E8F94146029005F0E4F903900499D5
:103B000005F0DEFA83464FF07E5104F0DBFF0590AE
:103B100004F0ACFFCDE9080139464FF0804005F0D4
:103B2000D1F94146039005F0CDF9494604904FF094
:103B3000804005F0C7F900E068E05146039005F0C9
:103B4000C1F98346049904F0BDFF059004F08EFF8F
:103B5000CDE90601DDE9082304F0ECF84FF0663208
:103B60002C4BCDE90A0104F0A7FCCDE90C0104F0CF
:103B7000C7F928605146504605F0A4F9494604901B
:103B8000484605F09FF941460390404605F09AF9F2
:103B900039460190384605F095F90090019904F0F6
:103BA00091FF0290039905F08BFA8346049905F082
:103BB00087FA059004F05AFFCDE9080151463846CE
:103BC00005F080F949460490404605F07BF90390E2
:103BD000049904F077FF4FF08041059005F072F9E9
:103BE000834604F043FFCDE90601DDE9082304F034
:103BF000A1F84FF06632074BCDE90A0104F05CFCF6
:103C0000CDE90C0104F07CF9306001E002200BE703
:103C1000002009E766A64C4010B5C8234FF4806227
:103C2000F74940F6F630FFF79FFC10BD10B586B09F
:103C30000446F4A000680390F3A000680290F3A08B
:103C400000680190F2A00068009004F0030003A94E
:103C5000085C8DF8140003A8C4F3C101405C8DF822
:103C6000150003A8C4F38111405C8DF8160004F020
:103C7000030002A9085C8DF8100002A8C4F3C1017A
:103C8000405C8DF8110002A8C4F38111405C8DF8EE
:103C9000120005AA032140F22640FFF7EBFB18B102
:103CA0004FF0FF3006B010BD04AA032140F22A40B5
:103CB000FFF7E0FB10B14FF0FF30F3E701980590FC
:103CC0000098049004F0040058B19DF8140040F0EE
:103CD00001008DF814009DF8100040F001008DF8EF
:103CE000100004F0200058B19DF8150040F00100CC
:103CF0008DF815009DF8110040F001008DF81100BD
:103D000004F4807058B19DF8160040F001008DF861
:103D100016009DF8120040F001008DF8120005AA6F
:103D200003214FF48860FFF7A5FB10B14FF0FF307F
:103D3000B8E704AA032140F23140FFF79BFB10B122
:103D40004FF0FF30AEE7B34804810020AAE71FB56B
:103D50000446B048007A00F0030054F820000190B7
:103D6000AC48007A00F0040010B101984042019084
:103D7000A848007AC0F3C10054F820000290A5487A
:103D8000007A00F0200010B1029840420290A14851
:103D9000007AC0F3811054F8200003909D480089F8
:103DA00000F4807010B10398404203909A49019842
:103DB00080FB0101800F40EA810001909649029842
:103DC00080FB0110820042EA9170029092490398B0
:103DD00080FB0110820042EA917003900198000E6E
:103DE0008DF800000198000C8DF801000198000A80
:103DF0008DF802000198C0B28DF803006A460421D4
:103E00004FF47470FFF736FB18B14FF0FF3004B079
:103E100010BD0298000E8DF800000298000C8DF87D
:103E200001000298000A8DF802000298C0B28DF8D5
:103E300003006A4604214FF47570FFF71BFB10B1B5
:103E40004FF0FF30E3E70398000E8DF80000039871
:103E5000000C8DF801000398000A8DF80200039809
:103E6000C0B28DF803006A4604214FF47670FFF764
:103E700001FBCCE770B588B0064601A8FEF701FD4E
:103E8000BDF804000021C90341EA5045C40361485C
:103E9000007A00F0030056F8200005905D48007A93
:103EA00000F0040010B10598404205905948007A8E
:103EB000C0F3C10056F8200006905648007A00F082
:103EC000200010B10698404206905248007AC0F394
:103ED000811056F8200007904E48008900F4807049
:103EE00010B10798404207900598C117A0FB042322
:103EF00001FB043100FB0510810041EA927005903E
:103F00000698C117A0FB042301FB043100FB051038
:103F1000810041EA927006900798C117A0FB042324
:103F200001FB043100FB0510810041EA927007900B
:103F30000598000E8DF808000598000C8DF8090012
:103F40000598000A8DF80A000598C0B28DF80B009C
:103F50000698000E8DF80C000698000C8DF80D00E8
:103F60000698000A8DF80E000698C0B28DF80F0072
:103F70000798000E8DF810000798000C8DF81100BE
:103F80000798000A8DF812000798C0B28DF8130048
:103F900002AA0C214FF42570FFF76CFA08B070BD2F
:103FA00030B585B004461DA207CA02AB07C3C82CB2
:103FB00003DD4FF0FF3005B030BDC82090FBF4F0BA
:103FC000401E85B2280A8DF80000E8B28DF8010085
:103FD0006A46022140F21620FFF74CFA10B14FF06A
:103FE000FF30E8E702AA0C2140F6C120FFF742FAB1
:103FF00010B14FF0FF30DEE7064884810020DAE799
:10400000509D00084CCD6C000CC92C003656760033
:1040100026466600EC04002009E3CA02FEF2ABC4A7
:10402000AAF1DFDFBBAFDFDF0146FC4880890880F3
:10403000002070472DE9FC4706460F4606F00700B2
:1040400010B1B7F5C86F03DD4FF0FF30BDE8FC8756
:10405000384604F0EFFE8146F14904F0A1FD8046A8
:104060006846FEF792FB9DF80000022806D004285F
:1040700016D0082826D0102848D135E04FF08D41C1
:10408000404604F01FFF814604F09CFE84B2E549DF
:10409000404604F017FF814604F094FE85B238E0F4
:1040A0004FF08C41404604F00DFF814604F08AFE3B
:1040B00084B2DD49404604F005FF814604F082FEEB
:1040C00085B226E04FF08B41404604F0FBFE81466E
:1040D00004F078FE84B2D549404604F0F3FE8146F0
:1040E00004F070FE85B214E04FF08A41404604F0BF
:1040F000E9FE814604F066FE84B2CD49404604F0F4
:10410000E1FE814604F05EFE85B202E04FF0FF3032
:104110009CE700BF20128DF80400E0B28DF8050086
:1041200028128DF80600E8B28DF8070006F00100AD
:10413000A0B101AA02214FF4EA70FFF79BF910B178
:104140004FF0FF3082E70DF1060202214FF492702A
:10415000FFF790F910B14FF0FF3077E706F002005B
:10416000A0B101AA02214FF4EC70FFF783F910B15E
:104170004FF0FF306AE70DF1060202214FF4947010
:10418000FFF778F910B14FF0FF305FE706F0040059
:10419000A0B101AA02214FF4EE70FFF76BF910B144
:1041A0004FF0FF3052E70DF1060202214FF49670F6
:1041B000FFF760F910B14FF0FF3047E7002045E707
:1041C00038B504460020009004F0010020B19DF8AD
:1041D000000040F03000009004F0020020B19DF893
:1041E000000040F00C00009004F0040020B19DF8A5
:1041F000000040F0030000906A4601214FF4A470D3
:10420000FFF738F938BD38B50446012C01DA01242E
:1042100002E0042C00DD0424601EC0B200906A4657
:10422000012140F24F10FFF725F938BD38B504469B
:10423000052094FBF0F085B228128DF80000E8B25A
:104240008DF801006A4602214FF4EF70FFF712F972
:1042500038BD38B50446052094FBF0F085B228122D
:104260008DF80000E8B28DF801006A4602214FF493
:10427000ED70FFF7FFF838BDF8B505460E464FF470
:104280007A7095FBF0F000FB06F4200E8DF800002C
:10429000200C8DF80100200A8DF80200E0B28DF8A4
:1042A00003006A4604214FF4AE70FFF7E3F8F8BD4F
:1042B00038B50446052094FBF0F084B220128DF846
:1042C0000000E0B28DF801006A4602214FF4AD70A3
:1042D000FFF7D0F838BD38B50446052094FBF0F060
:1042E00084B220128DF80000E0B28DF801006A4619
:1042F00002214FF4AC70FFF7BDF838BD38B5044665
:1043000014B94FF0FF3038BD6A4604214FF458709D
:10431000FFF7EDF810B14FF0FF30F4E79DF8000023
:1043200000069DF8011040EA01409DF8021040EAA5
:1043300001209DF80310084320600020E3E738B512
:104340000446200E8DF80000200C8DF80100200A94
:104350008DF80200E0B28DF803006A4604214FF4A4
:104360005870FFF787F838BD38B5044614B94FF0D8
:10437000FF3038BD6A4604214FF47170FFF7B7F87B
:1043800010B14FF0FF30F4E79DF8000000069DF8F3
:10439000011040EA01409DF8021040EA01209DF81A
:1043A0000310084300EB8000800020600020E0E75D
:1043B00038B504461420B4FBF0F4200E8DF800004C
:1043C000200C8DF80100200A8DF80200E0B28DF873
:1043D00003006A4604214FF47170FFF74BF838BDB3
:1043E00038B5044664B120208DF8000028208DF8EF
:1043F000010030208DF8020038208DF8030004E021
:10440000A3220421684603F035F86A46042140F6E9
:104410009E20FFF72FF8FDF787FC38BDEC04002045
:1044200000004843000040460000C04500004045F1
:104430000000C04438B5044664B1C0208DF80000C7
:10444000C2208DF80100C4208DF80200C6208DF82E
:10445000030004E08B220421684603F00BF86A464F
:10446000042140F69820FFF705F8FDF75DFC38BD04
:104470003EB504466CB1FDA1D1E900208968CDE9C3
:10448000002002916A4609214FF49760FEF7F2FF7F
:104490003EBDF9A2D2E900109268CDE90102009177
:1044A0006A4609214FF49760FEF7E4FFF0E73EB556
:1044B000044602208DF80000CA208DF80100E32098
:1044C0008DF8020009208DF803006A460421682057
:1044D000FEF7D0FFA3208DF8000004F0400048B1A3
:1044E000C0208DF80100C8208DF80200C2208DF890
:1044F000030006E0A3208DF801008DF802008DF87E
:10450000030004F4C07048B1C4208DF80400CC202E
:104510008DF80500C6208DF8060006E0A3208DF872
:1045200004008DF805008DF80600A3208DF8070023
:104530008DF808008DF809006A460A2140F6A72088
:10454000FEF798FF04F0030018B120208DF800005A
:1045500002E0D8208DF800006A46012140F6B6201E
:10456000FEF788FF04F0200018B10120FFF780FF5C
:1045700002E00020FFF77CFF04F4C07008B304F4ED
:10458000807060B1B2208DF800008B208DF80100A2
:10459000B6208DF802009B208DF803000BE0B020C0
:1045A0008DF8000080208DF80100B4208DF8020005
:1045B00090208DF803006A46042140F6A220FEF701
:1045C00059FF04F0010020B3F8208DF800006A467E
:1045D00001214FF40B60FEF74DFFFA210720FFF792
:1045E00029FD0720FFF7ECFD0120FFF70CFE6420FA
:1045F000FFF71CFE4FF4FA70FFF72BFEC821A1480D
:10460000FFF73AFE2820FFF753FE0A20FFF763FE6C
:1046100008E0D8208DF800006A4601214FF40B60B5
:10462000FEF728FF04F0020018B1D9208DF8000031
:1046300002E0D8208DF800006A46012140F23D706A
:10464000FEF718FF04F0040018B10120FFF7F2FE96
:1046500002E00020FFF7EEFE04F0100018B1012088
:10466000FFF7BEFE02E00020FFF7BAFE44F00800AC
:1046700085494881FDF758FB00208349887304F081
:10468000400018B10846807B801D887304F4C07018
:1046900020B17D48807B801D7B49887304F0140025
:1046A00020B17948807B10307749887304F003008B
:1046B00020B17548807B001D7349887300203EBD82
:1046C0000146714840890880002070472DE9F0417B
:1046D0000446E07800F0C006E07800F03F0560781E
:1046E00000F0010098B1EF102846E91705EB517171
:1046F000C910A5EBC101491C01F0FF086248006820
:1047000020B16148414602683846904700BF607852
:1047100000F0080030B15C48406818B1B0115A4A46
:10472000516888470020BDE8F08110B586B0044686
:1047300056A207CA03AB07C357A207CA8DE80700F2
:10474000012C09D0022C0ED103AA0B2140F68220A5
:10475000FEF790FE06B010BD6A460B2140F682209F
:10476000FEF788FEF6E74FF0FF30F3E72DE9F04F54
:104770008DB00746884615469946DDE9166B00243C
:10478000002030804049887B5A4605A9FEF7D5F9BC
:1047900018B1601E0DB0BDE8F08F3B48807A00F084
:1047A0001400002861D09DF8140000069DF8151033
:1047B00040EA01409DF8161040EA01209DF81710CC
:1047C000084328609DF8180000069DF8191040EA7B
:1047D00001409DF81A1040EA01209DF81B10084383
:1047E00068609DF81C0000069DF81D1040EA01401D
:1047F0009DF81E1040EA01209DF81F100843A86094
:104800009DF8200000069DF8211040EA01409DF827
:10481000221040EA01209DF823100843E86004F1CB
:104820001000C4B228680014019068680014029057
:10483000A86800140390E8680014049001984043AD
:10484000029901FB0100039901FB0100049901FB9E
:10485000010ABAF1706F02DBBAF1885F22DDFDF761
:1048600063FA00203080401E94E721E0B8AAB38D9F
:10487000B4980D355D000000B8AAAAAAB088C3C5D7
:10488000C700000009E3CA02EC040020D8B1B9F364
:104890008BA391B609B4D900DAB1B9F38BA391B661
:1048A000DAB4DA00B6F9000040F48070308000BF5E
:1048B0003448807A00F0400020B305A9601C085CF1
:1048C000095D40EA012000B2A8F8000005A9E01C3B
:1048D000095C05AAA01C105C41EA002000B2A8F8FF
:1048E000020005A9601D095C201D105C41EA002042
:1048F00000B2A8F80400A01DC4B2B6F9000040F050
:10490000080030801F48408900F4C07008B305A932
:10491000601C085C095D40EA012000B2388005A9EE
:10492000E01C095C05AAA01C105C41EA002000B252
:10493000788005A9601D095C201D105C41EA0020FB
:1049400000B2B880A01DC4B2B6F9000040F07000FB
:1049500030800C48807A00F0030018B105A90819CE
:10496000FFF7B4FE4846FDF74CFD002012E7014674
:104970000448016000207047014602484160002061
:1049800070470000EC04002030B589B005460C46A5
:104990000121C80201F048F80121042001F044F887
:1049A0004FF41060ADF8200018208DF8230003208C
:1049B0008DF8220008A91C4800F07AFDADF81850C7
:1049C000ADF814400020ADF81A00ADF8160005A9A6
:1049D000164801F061F96020ADF804000120ADF83F
:1049E00006000020ADF80A00ADF80C0001A90F4840
:1049F00001F08FF901A90D4801F065FA01210B487A
:104A000001F0B2FC0821094801F0D2FD0821074855
:104A100001F0EDFD0121054801F09AFD0121034857
:104A200001F096FC09B030BD00080140002C0140A7
:104A300008B50121082000F0F7FF4FF47040ADF8F1
:104A4000000010208DF8030003208DF80200694655
:104A5000FE4800F02DFD08BD0020FD490860FD491D
:104A6000C1F8BC01FA49091F0860091F0860FA492A
:104A70000880F9490C31088070470146002901DAA5
:104A8000484200E00846704700B503460A46002B3E
:104A900008DD0020EE49091D08600120ED49C1F83C
:104AA000B80107E00120EA49091D08600020E94932
:104AB000C1F8B8011846FFF7E0FFE7490880002A6F
:104AC00008DD0020E249091F08600120E149C1F822
:104AD000B00107E00120DE49091F08600020DD4920
:104AE000C1F8B0011046FFF7C8FFDB490C31088060
:104AF00000BD41F6F420D94909684242914202DAE8
:104B00004142D64A1160D5490968814201DDD34945
:104B10000860D34909684242914202DA4142D04AD0
:104B20001160CF490968814201DDCD4908607047B5
:104B30002DE9F84F04460D46CA4F4FF07E582646E1
:104B40004146284604F0BEF983463146384604F013
:104B5000B9F95946009003F0B5FF824604F016F902
:104B600081464846BDE8F88F2DE9F04F89B00446EC
:104B70008946BD480890BD480790BD480490BD488F
:104B8000006804F03FF90546049904F099FA06908C
:104B9000B948006804F036F90546049904F090FA23
:104BA0008246B648007801283BD10021059804F0E0
:104BB000B9F829D10021069804F050FA04D2002156
:104BC000504604F04BFA09D30021069804F046F948
:104BD0001AD20021504604F041F915D251460698E8
:104BE00003F070FF4FF08041039003F0D9FF83463C
:104BF00003F03CFF0746A24AA24B03F05DFC0546CA
:104C000003F07EF9A04908609A480068B0F5FA6F91
:104C100004DC99480068B0F5FA6F02DD00209A497B
:104C2000086096480078022812D198480078012838
:104C300003D19748944908600AE096480078012813
:104C400003D195489049086002E000208E49086031
:104C500004EB0901084604F0D5F890490860904833
:104C6000006803F003FF0746854A8E4B03F024FCDF
:104C7000054603F045F98A4908608848006803F052
:104C8000F5FE05467E4A7F4B03F016FCCDE9020196
:104C90008348006803F0EAFECDE90001DDE9022364
:104CA00003F060F9074603F02BF97D4908600846D8
:104CB00001687D48006803F005FF7B490860724881
:104CC00001687948006804F0FBF977490860774982
:104CD0007548006804F0C2F902D27448724908604D
:104CE00073497148006804F0B9F802D270486E49FF
:104CF00008606D480799006804F0E4F805466848C4
:104D00000899006804F0DEF80646294603F0DAFE4A
:104D10006849086068496948006804F09FF905D34C
:104D200067496648006804F099F802D200205E499D
:104D300008606048006804F029F809B0BDE8F08F09
:104D40002DE9F04F85B00646894692465D480078C9
:104D5000582191FBF0F7384604F054F805465A48BC
:104D6000049000200390594802900020019043488D
:104D70000078012856D13F4909683F4A1268881ACD
:104D800004F040F800903B480068142819DD3948C9
:104D90000068B0F5FA6F14DA37480068142810DD9F
:104DA00035480068B0F5FA6F0BDA0021009804F07E
:104DB00055F806D24FF07E50009904F083F804466F
:104DC0001EE02C480068142819DD2A480068B0F558
:104DD000FA6F14DA28480068142810DD26480068A5
:104DE000B0F5FA6F0BDA0021009804F037F906D21B
:104DF0004FF07E50009904F065F8044600E000246E
:104E000033480460006880F000473846029904F097
:104E100059F8304908600846006803F0B7FF05B04C
:104E2000BDE8F08F1548007802287DD12A48007827
:104E3000012803D029480078012876D14FF07E510F
:104E40002748006803F03EFE25494BE0000C014076
:104E5000B881214200802142342C014024000020EE
:104E600028000020000096430000A042CDCCCC3E9C
:104E7000000016443C0000204000002054000020A8
:104E80009A9999999999C93FB80000202C0000205F
:104E9000000070422D000020000070C2B000002011
:104EA000B40000209999E93FBC00002000401C4656
:104EB00000401CC6AC000020000048420400002056
:104EC000000048C2300000200000284200002042BC
:104ED000C4000020D40000202E0000202F0000205D
:104EE000D0000020074608604FF07E5103F01AFF03
:104EF00008D106EB0900FFF7C0FD074603F082FF6B
:104F00004349086042480168424803F049FE42496B
:104F100008600846006803F0A9FD07464FF03332E9
:104F20003E4B03F08DFA01E070E00DE002D23C4808
:104F3000394908603B493848006804F08FF80AD2C4
:104F400038483549086006E0002033490860364992
:104F500008602F49086035480078012808D12E489C
:104F600001683348006804F0ABF8314908600FE08D
:104F700030480078012808D1274801682C4800688B
:104F800003F0A0FD2A49086002E0002028490860DB
:104F900029462748006804F061F801D224480560DA
:104FA00085F0004722480168384604F057F803D2DC
:104FB00085F000401E4908601F480078012803D092
:104FC0001E480078012803D14FF07E50039001E085
:104FD000002003905146002003F074FF834603999C
:104FE00003F070FF07461248006880F0004B5846F7
:104FF000049903F067FF8046394604F061F81049D0
:1050000008600846006803F0C1FE08E700BF06E735
:10501000C800002000004842CC0000203333E33FAA
:105020009A99193F00004040D00000202E00002037
:10503000C40000202F0000202C0000202D000020A4
:10504000D400002000B587B00121084600F0F9FC2B
:105050000121042000F0E8FC0320ADF8000004204A
:105060008DF803006946614800F022FA04A801F0B7
:105070003FF90020ADF810004FF6FF70ADF81400B6
:105080000020ADF81600ADF8120004A94FF08040E2
:1050900000F002FE00231A4603214FF0804001F089
:1050A0000AFA01A801F037F90A20ADF80C0001A9AD
:1050B000400701F084F80121880701F00FFC01226C
:1050C0001146900701F05FF900214FF0804001F098
:1050D000D3FB0121880701F03BF907B000BD00B503
:1050E00087B00121042000F0ACFC0121082000F071
:1050F0009BFCC020ADF8000004208DF80300694639
:105100003B4800F0D5F904A801F0F2F80020ADF812
:1051100010004FF6FF70ADF814000020ADF8160037
:10512000ADF8120004A9334800F0B6FD00231A467A
:105130000321304801F0BFF901A801F0ECF80A2082
:10514000ADF80C0001A92B4801F039F801212948DC
:1051500001F0C4FB01221146264801F014F9002198
:10516000244801F089FB0121224801F0F1F807B041
:1051700000BD0146022904D003290BD0042919D10E
:105180000FE04FF08042928C10B200224FF080432B
:105190009A8411E0184A128810B20022164B1A8025
:1051A0000AE0144A2432128810B20022114B243330
:1051B0001A8001E0002000BF00BF70470D4810308A
:1051C00000880C481030008820F001000949103197
:1051D000088070474FF08040008A4FF08040008A7E
:1051E00020F001004FF08041088270470008014024
:1051F000000C0140000800402404004000B587B0C6
:1052000001214FF4017000F00FFC4FF4004000F05A
:105210006FFB4020ADF8040000208DF8070001A9C5
:10522000364800F045F9364801F074FD0020029040
:105230008DF80C008DF80D004FF4602004900020D4
:10524000059001208DF8180002A92D4801F089FD74
:1052500001212B4801F0B1FD294801F0D0FD00BF2C
:10526000274801F0D1FD0028FAD1254801F0D6FDEC
:1052700000BF234801F0D7FD0028FAD107B000BDD8
:1052800010B504460723012221461D4801F001FE06
:1052900001211B4801F0D1FD00BF0221184801F097
:1052A0003DFF0028F9D0164801F05AFE10BD2DE947
:1052B000F04F85B00620FFF7E3FF019003F0ACF854
:1052C0004FF066320F4BCDE9020103F0F5F880464E
:1052D00000220D4B03F0F0F8064600220B4B03F0C2
:1052E000EBF8044600220A4B02F0F8FE824603F077
:1052F0004DF80490049805B0BDE8F08F0008014017
:105300000024014066660A40000026400000594023
:105310000000B04031490143314A1160704770B517
:10532000002100230F22C47804B32D4C246804F418
:10533000E064C4F5E064210AC1F10403CA40447882
:1053400004FA03F18478144021430901254C0678BE
:10535000A155047804F01F050124AC4005786D11B7
:10536000AD0005F1E025C5F8004109E0047804F03E
:105370001F050124AC401C4D0678761145F82640E7
:1053800070BD1A4A0A400243154B1B1F1A60704732
:1053900039B1134A121D12680243114B1B1D1A60CA
:1053A00006E00F4A121D126882430D4B1B1D1A6046
:1053B0007047042808D14FF0E021096941F0040149
:1053C0004FF0E022116107E04FF0E021096921F080
:1053D00004014FF0E0221161704700000000FA055F
:1053E0000CED00E000E400E080E100E080FFFF1F42
:1053F00010B50446CC48844208D10121042000F0B5
:105400002DFB0021042000F029FB46E0C748844220
:1054100008D10121082000F021FB0021082000F024
:105420001DFB3AE0C248844208D10121102000F05F
:1054300015FB0021102000F011FB2EE0BD48844236
:1054400008D10121202000F009FB0021202000F0DC
:1054500005FB22E0B848844208D10121402000F039
:10546000FDFA0021402000F0F9FA16E0B34884422A
:1054700008D10121802000F0F1FA0021802000F005
:10548000EDFA0AE0AE48844207D10121801500F010
:10549000E5FA0021A01500F0E1FA10BD10B50121D8
:1054A000084600F0DBFA0021012000F0D7FA10BD19
:1054B0002DE9F041024600250026002000230024AB
:1054C000002791F803C00CF00F0591F803C00CF011
:1054D000100CBCF1000F03D091F802C04CEA050596
:1054E00091F800C0BCF1000F31D0146800202BE00F
:1054F0004FF0010C0CFA00F3B1F800C00CEA0306FF
:105500009E4220D183004FF00F0C0CFA03F7BC43EE
:1055100005FA03FC4CEA040491F803C0BCF1280F1F
:1055200006D14FF0010C0CFA00FCC2F814C00AE0DE
:1055300091F803C0BCF1480F05D14FF0010C0CFAF3
:1055400000FCC2F810C0401C0828D1D31460B1F888
:1055500000C0BCF1FF0F34DD546800202EE000F1E4
:10556000080C4FF0010808FA0CF3B1F800C00CEA7F
:1055700003069E4221D183004FF00F0C0CFA03F773
:10558000BC4305FA03FC4CEA040491F803C0BCF1E7
:10559000280F05D100F1080C08FA0CF8C2F81480A5
:1055A00091F803C0BCF1480F07D100F1080C4FF08F
:1055B000010808FA0CF8C2F81080401C0828CED365
:1055C0005460BDE8F0814FF6FF71018002218170C7
:1055D0000421C17070470246002093680B400BB154
:1055E000012000E0002070470146886880B27047C3
:1055F00002460020D3680B400BB1012000E00020E0
:1056000070470146C86880B27047016170474161C8
:1056100070470AB1016100E041617047C1607047A5
:105620004FF480320A4382618161826182698269BA
:10563000704702460020434B18684FF680731840AD
:1056400040EA021008433F4B186070473E49C8616A
:105650007047F0B50A46002300240021002500F021
:105660000046B6F1004F02D1364EF16901E0354EE9
:105670007168C0F3034583B200F44016B6F5401FCD
:1056800008D121F070612F4E766826F070662D4F9C
:105690007E6012E000F48016B6F5801F06D1032666
:1056A00006FA05F4A14341F0706106E0460D3601AB
:1056B00003FA06F6B14341F0706122B1460D36019E
:1056C00003FA06F6314300F00046B6F1004F02D16E
:1056D0001C4EF16101E01B4E7160F0BD30B500223F
:1056E0008B071C0F0F2303FA04F2164B08338C10A0
:1056F00053F824309343134C08348D1044F825306C
:1057000023468C1053F824308C07240F00FA04F43D
:1057100023430C4C08348D1044F8253030BD0A4921
:10572000DC3108607047000000080140000C0140B7
:10573000001001400014014000180140001C01400D
:10574000002001400000014000002042DF480068C6
:1057500040F00100DD49086008464068DC49084027
:10576000DA49486008460068DA490840D7490860C5
:105770000846006820F4802008600846406820F44D
:10578000FE0048604FF41F0088607047CF490968E9
:1057900021F48031CD4A11601146096821F480213D
:1057A0001160B0F5803F03D0B0F5802F0ED106E038
:1057B000C649096841F48031C44A116007E0C34911
:1057C000096841F4A021C14A116000E000BF00BF98
:1057D000704710B501460022002300204A11012A1B
:1057E00002D1BA4C236806E0022A02D1B74C236AE0
:1057F00001E0B64C636A01F01F02012494401C4092
:105800000CB1012000E0002010BD38B50020009050
:105810000024002500BF3120FFF7DBFF054600987C
:10582000401C00900098B0F5A06F01D0002DF2D080
:105830003120FFF7CEFF08B1012400E0002420460C
:1058400038BD01460020A14A106820F0F80040EA67
:10585000C10010607047A0490860704702460020F0
:105860009A4B586820F47C1042EA01031843974B86
:105870005860704798490866704701460020934A6F
:10588000506820F003000843506070478F4840681C
:1058900000F00C007047014600208C4A506820F050
:1058A000F00008435060704701460020874A506866
:1058B00020F4E06008435060704701460020834AAE
:1058C000506820F4605040EAC1005060704729B130
:1058D0007E4A527A02437D4B5A7204E07B4A527AE6
:1058E00082437A4B5A7270477B49D83108607047BF
:1058F00001460020754A506820F44040084350603B
:1059000070470021714A20321170704A82F82010CD
:10591000012802D004280AD104E001216B4A203278
:10592000117005E00521694A2032117000E000BFC6
:1059300000BF70476949086070476449096A0143BC
:10594000624A11627047654944390860704730B552
:1059500000210022002400235C4D6D6805F00C013D
:1059600021B1042905D0082923D105E05C4D05604B
:1059700022E05B4D05601FE0544D6D6805F4701228
:10598000524D6D6805F48034022505EB92421CB936
:10599000544D554305600BE04C4D6D6805F40035E2
:1059A0001DB1504D5543056002E04D4D5543056016
:1059B00002E04B4D056000BF00BF444D6D6805F02F
:1059C000F0010909484D6B5C0568DD4045603F4DBD
:1059D0006D6805F4E061090A434D6B5C4568DD4084
:1059E00085603A4D6D6805F46051C90A3E4D6B5CA7
:1059F0004568DD40C560354D6D6805F44041890B53
:105A00003A4D6B5CC568B5FBF3F5056130BD29B156
:105A10002E4A526902432D4B5A6104E02B4A5269C7
:105A200082432A4B5A61704729B1284A926902433E
:105A3000264B9A6104E0254A92698243234B9A617E
:105A4000704729B1214AD2690243204BDA6104E050
:105A50001E4AD26982431D4BDA61704729B11B4A45
:105A6000D2680243194BDA6004E0184AD2688243D4
:105A7000164BDA60704729B1144A12690243134B7E
:105A80001A6104E0114A12698243104B1A6170478F
:105A900012494039086070470F49C86470470B4984
:105AA000C87170470948406A40F0807007494862F1
:105AB000704701460020054A92680A400AB1012059
:105AC00000E00020704701498872704700100240D2
:105AD0000000FFF8FFFFF6FE000042428004424251
